:100000000C9434000C943E000C943E000C943E0082
:100010000C943E000C943E000C943E000C943E0068
:100020000C943E000C943E000C943E000C943E0058
:100030000C943E000C943E000C943E000C943E0048
:100040000C943E000C943E000C943E000C943E0038
:100050000C943E000C943E000C943E000C943E0028
:100060000C943E000C943E0011241FBECFEFD8E04C
:10007000DEBFCDBF0E945F000C947F000C94000097
:100080009093C5008093C400E1ECF0E0808188602B
:10009000808380818061808386E08093C2000895A0
:1000A000982F8091C00085FFFCCF9093C6000895E3
:1000B0008091C00087FFFCCF8091C60008958FE239
:1000C00090E09093C5008093C4008091C100886047
:1000D0008093C1008091C10080618093C10086E05F
:1000E0008093C2008091C00087FFFCCF9091C60032
:1000F0008091C00085FFFCCF9093C600F3CFF894A9
:02010000FFCF2F
:00000001FF
