:100000000C944D000C9462000C9462000C946200FD
:100010000C9462000C9462000C9462000C946200D8
:100020000C9462000C9462000C9462000C946200C8
:100030000C9462000C9462000C9462000C946200B8
:100040000C9462000C9462000C9462000C946200A8
:100050000C9462000C9462000C9462000C94620098
:100060000C9462000C9462003E3E205553432045A0
:10007000453435394C203C3C373839303132333413
:10008000003E3E2061743332382D352E632068697E
:10009000203C3C3930313233340011241FBECFEFC5
:1000A000D8E0DEBFCDBF11E0A0E0B1E0E0EFF3E1CA
:1000B00002C005900D92AC30B107D9F70E94C90972
:1000C0000C94F6090C94000081E00E948F0060E01F
:1000D00080E00E94980080E091E00E94B7002FEF3E
:1000E0008FE796E1215080409040E1F700C000008A
:1000F00008959BB19F709BB99BB1807F892B8BB971
:100100002A982A9A2A9A2A980895CF93C82F0E944B
:1001100079008C2F8295807FCF910C9479002C9858
:100120000E94850086E69EE00197F1F700000895A1
:100130008295880F880F807C860F80680C948F00D2
:100140002C9A0E94850086E69EE00197F1F7000058
:100150000895CF93DF93EC01FE01849121968111E4
:1001600003C0DF91CF9108950E94A000F5CFCF93F7
:10017000DF93EC018991811103C0DF91CF91089544
:100180000E94A000F7CF8AB1806F8AB984B18461E0
:1001900084B92C988FEF9BE60197F1F700C000001F
:1001A00080E30E9479008FEF93E20197F1F700C09E
:1001B000000080E30E9479008DED90E00197F1F757
:1001C00080E30E94790086E69EE00197F1F7000047
:1001D00080E20E94790086E69EE00197F1F7000038
:1001E00088E20E948F008FE00C948F0086E69EE0EC
:1001F0000197F1F700000895CF92DF92EF92FF92FE
:100200000F931F93A82F4115510521F401151105D6
:1002100009F4A8C084EA8093BC008091BC0087FFE9
:10022000FCCF8091B900887F883009F06BC08A2F9D
:100230008E7F8093BB0084E88093BC008091BC00DB
:1002400087FFFCCF8091B900887F8831D1F0803260
:1002500009F058C094E99093BC0054C081918093F8
:10026000BB006093BC008091BC0087FFFCCF8091F5
:10027000B900887F883249F0803309F043C080E3B9
:10028000E9CFFB01460F571F64E84E175F0731F7B0
:10029000F901020F131F24E80EC081918093BB0067
:1002A0002093BC008091BC0087FFFCCF8091B900F7
:1002B000887F883209F70E171F0779F720E1C114EC
:1002C000D10411F43BC028E084EA8093BC00809103
:1002D000BC0087FFFCCF8091B900887F281312C033
:1002E000A160A093BB0084E88093BC008091BC0017
:1002F00087FFFCCF8091B900887F803451F088342B
:1003000009F4A8CF1F910F91FF90EF90DF90CF904D
:100310000895F70194EC81E0C816D10489F484E8CB
:100320008093BC008091BC0087FFFCCF8091B90016
:10033000887F883539F78091BB00808380E08ACF41
:100340009093BC008091BC0087FFFCCF8091B900E6
:10035000887F21E0C21AD1088035A1F68091BB00C8
:100360008193D9CFC114D10409F0ADCF80E0CACFB9
:100370001092B9008093B80008950F931F93CF9304
:10038000DF9300D0CDB7DEB741EB51E270E060E023
:10039000CE0101960E948A08AC01BE016F5F7F4FBB
:1003A00082E60E946A098C01892B31F468EE73E0C1
:1003B00080E090E00E94C809C8010F900F90DF9183
:1003C000CF911F910F910895AF92BF92CF92DF927C
:1003D000EF92FF920F931F93CF93DF93CDB7DEB7CA
:1003E00029970FB6F894DEBF0FBECDBF5C016B013D
:1003F0007A0145E05CEE70E060E0CE0101960E947B
:100400008A08AC01BE016F5F7F4F82E60E946A09D5
:100410008C01892B31F568EE73E080E090E00E945A
:10042000C80946E050E0BE016F5F7F4F82E60E9440
:1004300070098C01892BA9F4CE0101960E94CD068A
:10044000F50191838083CE0103960E94CD06F601CB
:1004500091838083CE0105960E94CD06F70191839A
:100460008083C80129960FB6F894DEBF0FBECDBFBA
:10047000DF91CF911F910F91FF90EF90DF90CF9080
:10048000BF90AF900895EF92FF920F931F93CF9379
:10049000DF9300D000D0CDB7DEB77B018A01AE017B
:1004A0004F5F5F4FBE016D5F7F4F0E94E401AC0163
:1004B000892B41F52B813C81A3E7B5E50E94DC093E
:1004C0002DE095958795779567952A95D1F7685C86
:1004D0007F4A81099109F701608371838283938345
:1004E00029813A81A4EDB0E30E94DC093DE09595B5
:1004F0008795779567953A95D1F7F8016083718371
:1005000082839383CA010F900F900F900F90DF9119
:10051000CF911F910F91FF90EF9008950F931F932C
:10052000CF93DF9300D0CDB7DEB746E85FE370E04E
:1005300060E0CE0101960E948A08AC01BE016F5FA7
:100540007F4F82E60E946A098C01892B31F460E2B8
:1005500071EA87E090E00E94C809C8010F900F90EF
:10056000DF91CF911F910F910895EF92FF920F931A
:100570001F93CF93DF9300D01F92CDB7DEB77C01DE
:1005800048E153E270E060E0CE0101960E948A08E3
:10059000AC01BE016F5F7F4F82E60E946A098C0149
:1005A000892BC1F468EE73E080E090E00E94C809F6
:1005B00042E050E0BE016F5F7F4F82E60E9470090B
:1005C0008C01892B39F4CE0101960E94CD06F701EA
:1005D00091838083C8010F900F900F90DF91CF918E
:1005E0001F910F91FF90EF9008950F931F93CF935A
:1005F000DF9300D0CDB7DEB78C01CE0101960E940B
:10060000B502AC01892B91F429813A81A3E7B5E5C4
:100610000E94DC092DE095958795779567952A9539
:10062000D1F7F8016083718382839383CA010F90AD
:100630000F90DF91CF911F910F9108950F931F930A
:10064000CF93DF9300D000D01F92CDB7DEB78C01DF
:100650004DE154E270E060E0CE0101960E948A080C
:10066000A801BC01CE0101960E94D408AC01BE01D4
:100670006F5F7F4F82E60E946A098C01892B31F4FB
:1006800068EE73E080E090E00E94C809C8010F9016
:100690000F900F900F900F90DF91CF911F910F91BE
:1006A00008959B01AC01AFEEBFE20E94EB09DC01B3
:1006B000CB012FE0B595A795979587952A95D1F70A
:1006C0000C941E03EF92FF920F931F93CF93DF932F
:1006D00000D01F92CDB7DEB77C0142E253E270E05A
:1006E00060E0CE0101960E948A08AC01BE016F5FF6
:1006F0007F4F82E60E946A098C01892BC1F468EE63
:1007000073E080E090E00E94C80942E050E0BE0142
:100710006F5F7F4F82E60E9470098C01892B39F44C
:10072000CE0101960E94CD06F70191838083C80116
:100730000F900F900F90DF91CF911F910F91FF902D
:10074000EF9008950F931F93CF93DF9300D000D0C5
:100750001F92CDB7DEB78C0147E254E270E060E053
:10076000CE0101960E948A08A801BC01CE01019623
:100770000E94D408AC01BE016F5F7F4F82E60E94E9
:100780006A098C01892B31F468EE73E080E090E017
:100790000E94C809C8010F900F900F900F900F9002
:1007A000DF91CF911F910F9108950F931F93CF93D6
:1007B000DF9300D000D01F92CDB7DEB78C0140E0B0
:1007C00050EE70E060E0CE0101960E948A08A80118
:1007D000BC01CE0101960E94D408AC01BE016F5F3E
:1007E0007F4F82E60E946A098C01892B31F468EE02
:1007F00073E080E090E00E94C809C8010F900F905C
:100800000F900F900F90DF91CF911F910F9108954E
:10081000EF92FF920F931F93CF93DF9300D000D0FE
:100820001F92CDB7DEB78C017B014FE256E370E03B
:1008300060E0CE0101960E948A08A801BC01CE01A9
:1008400001960E94D408AC01BE016F5F7F4F82E623
:100850000E946A098C01892BC1F460E87AE186E084
:1008600090E00E94C80942E050E0BE016F5F7F4FF8
:1008700082E60E9470098C01892B39F4CE01019621
:100880000E94CD06F70191838083C8010F900F90DD
:100890000F900F900F90DF91CF911F910F91FF90CC
:1008A000EF900895EF92FF920F931F93CF93DF93F2
:1008B00000D01F92CDB7DEB77C0143E153E270E078
:1008C00060E0CE0101960E948A08AC01BE016F5F14
:1008D0007F4F82E60E946A098C01892BC1F468EE81
:1008E00073E080E090E00E94C80942E050E0BE0161
:1008F0006F5F7F4F82E60E9470098C01892B39F46B
:10090000CE0101960E94CD06F70191838083C80134
:100910000F900F900F90DF91CF911F910F91FF904B
:10092000EF9008950F931F93CF93DF9300D000D0E3
:100930001F92CDB7DEB78C0146E154E270E060E073
:10094000CE0101960E948A08A801BC01CE01019641
:100950000E94D408AC01BE016F5F7F4F82E60E9407
:100960006A098C01892B31F468EE73E080E090E035
:100970000E94C809C8010F900F900F900F900F9020
:10098000DF91CF911F910F910895CF93DF9300D006
:10099000CDB7DEB74CEA51E270E060E0CE010196DF
:1009A0000E948A08AC01BE016F5F7F4F82E60E9401
:1009B0006A090F900F90DF91CF910895EF92FF9207
:1009C0000F931F93CF93DF9300D01F92CDB7DEB765
:1009D0007C0148EB54EE70E060E0CE0101960E948D
:1009E0008A08AC01BE016F5F7F4F82E60E946A09F0
:1009F0008C01892BE9F468EE73E080E090E00E94BE
:100A0000C80942E050E0BE016F5F7F4F82E60E945E
:100A100070098C01892B61F4CE0101960E94CD06EC
:100A20009C01377091E0232B09F490E0F70190834B
:100A3000C8010F900F900F90DF91CF911F910F91F0
:100A4000FF90EF9008950F931F93CF93DF9300D003
:100A5000CDB7DEB745E156E370E060E0CE01019628
:100A60000E948A08AC01BE016F5F7F4F82E60E9440
:100A70006A098C01892B31F460E075E38CE090E029
:100A80000E94C809C8010F900F90DF91CF911F916C
:100A90000F910895AF92BF92CF92DF92EF92FF92A3
:100AA0000F931F93CF93DF93CDB7DEB729970FB680
:100AB000F894DEBF0FBECDBF5C016B017A0142E846
:100AC00056E370E060E0CE0101960E948A08AC0116
:100AD000BE016F5F7F4F82E60E946A098C01892BFD
:100AE00031F568EE73E080E090E00E94C80946E0CE
:100AF00050E0BE016F5F7F4F82E60E9470098C015B
:100B0000892BA9F4CE0101960E94CD06F5019183AF
:100B10008083CE0103960E94CD06F60191838083E7
:100B2000CE0105960E94CD06F70191838083C8010E
:100B300029960FB6F894DEBF0FBECDBFDF91CF91DF
:100B40001F910F91FF90EF90DF90CF90BF90AF90EB
:100B50000895EF92FF920F931F93CF93DF9300D0EE
:100B60001F92CDB7DEB77C0149E356E370E060E049
:100B7000CE0101960E948A08AC01BE016F5F7F4FD3
:100B800082E60E946A098C01892BC1F460E876E94B
:100B900088E990E00E94C80942E050E0BE016F5F22
:100BA0007F4F82E60E9470098C01892B39F4CE01B7
:100BB00001960E94CD06F70191838083C8010F90B2
:100BC0000F900F90DF91CF911F910F91FF90EF90B9
:100BD00008950F931F93CF93DF9300D0CDB7DEB767
:100BE00042E356E370E060E0CE0101960E948A087D
:100BF000AC01BE016F5F7F4F82E60E946A098C01E3
:100C0000892B31F460E075E38CE090E00E94C80924
:100C1000C8010F900F90DF91CF911F910F91089510
:100C20000F931F93CF93DF9300D0CDB7DEB746E489
:100C300056E370E060E0CE0101960E948A08AC01A4
:100C4000BE016F5F7F4F82E60E946A098C01892B8B
:100C500031F460E27EE480E090E00E94C809C801BF
:100C60000F900F90DF91CF911F910F9108950F93E7
:100C70001F93CF93DF9300D0CDB7DEB74DE951E29C
:100C800070E060E0CE0101960E948A08AC01BE01CE
:100C90006F5F7F4F82E60E946A098C01892B31F4D5
:100CA00060E47BE48CE490E00E94C809C8010F90E6
:100CB0000F90DF91CF911F910F9108950F931F9384
:100CC000CF93DF9300D0CDB7DEB746E951E270E0B5
:100CD00060E0CE0101960E948A08AC01BE016F5F00
:100CE0007F4F82E60E946A098C01892B31F460E50E
:100CF00073EC80E090E00E94C809C8010F900F904B
:100D0000DF91CF911F910F9108950F931F93CF9370
:100D1000DF9300D0CDB7DEB740EE56E370E060E081
:100D2000CE0101960E948A08AC01BE016F5F7F4F21
:100D300082E60E946A098C01892B31F468EE73E027
:100D400080E090E00E94C809C8010F900F90DF91E9
:100D5000CF911F910F910895CF93DF9300D0CDB71E
:100D6000DEB746EF56E370E060E0CE0101960E94E8
:100D70008A08AC01BE016F5F7F4F82E60E946A095C
:100D800060E27EE480E090E00E94C80990E080E0AC
:100D90000F900F90DF91CF910895FC018081918198
:100DA0009827892798270895FC01608171818281A5
:100DB00093810E94D5090895FC0180819181982733
:100DC0008927982708950C94D4060E94D406089584
:100DD000FA0190838183728363830895FB0190837A
:100DE00081830895FA0190838183728363830895D8
:100DF000FB019083818308950C94E806FB01480F62
:100E0000591F8417950709F40895DC012D91CD0130
:100E10002193F7CFFC01680F791F8FEF21E3E617CD
:100E2000F70709F408959191892798E087FF05C095
:100E3000880F82279150D1F7F2CF880FFBCFCF9345
:100E4000C42F0E940A0791E08C1301C090E0892F03
:100E5000CF910895CF93DF931F92CDB7DEB786E091
:100E6000898341E050E0BE016F5F7F4F80E00E94C8
:100E7000C609082E000C990B0F90DF91CF910895B1
:100E8000EF92FF920F931F93CF93DF93EC01022F0A
:100E9000788369837A01229610E010130CC023E056
:100EA000129FC00111240296DF91CF911F910F91E3
:100EB000FF90EF900895F7018181F2E0EF0EF11CB1
:100EC0008883F70132978081898362E070E0CE01E8
:100ED0000E940A078A831F5F2396DFCF8F929F921B
:100EE000AF92BF92CF92DF92EF92FF920F931F9338
:100EF000CF93DF93CDB7DEB7C054D1090FB6F894C6
:100F0000DEBF0FBECDBF8B015A01AA0CBB1CA40EC5
:100F1000B51EA5019E012F5F3F4F4901B9010E94F7
:100F2000C409C82E880FDD0878018401C114D104DA
:100F300071F1C601C05CDF4F0FB6F894DEBF0FBE83
:100F4000CDBFDF91CF911F910F91FF90EF90DF9078
:100F5000CF90BF90AF909F908F900895F8014281FD
:100F600062E070E0C8010E941F07082E000C990B78
:100F70000097A1F4F8018081F7018083F801818155
:100F8000F70181830D5F1F4FF2E0EF0EF11CC801E6
:100F9000881999098A159B0508F3CBCF6C01C9CF35
:100FA0000F931F93CF93DF938B01EA010E946E078B
:100FB000AC0190E04115510599F0CA01DF91CF9144
:100FC0001F910F910895220F331FF801E20FF31FB5
:100FD00020813181322723273227318320839F5F6D
:100FE000292F30E02C173D0770F3E7CF1F93CF93E5
:100FF000DF9300D0CDB7DEB7182F20E050E040E0FF
:10100000CE0101960E94400742E050E0BE016F5FB2
:101010007F4F812F0E94C609082E000C990B0F905C
:101020000F90DF91CF911F9108951F93CF93DF937E
:10103000CDB7DEB7A0970FB6F894DEBF0FBECDBF19
:10104000182FCE0101960E944007AC01BE016F5FD0
:101050007F4F812F0E94C609082E000C990BA09685
:101060000FB6F894DEBF0FBECDBFDF91CF911F91B9
:1010700008958F929F92AF92BF92DF92EF92FF926C
:101080000F931F93CF93DF9300D0CDB7DEB7D82E49
:1010900049015A0120E050E040E0CE0101960E9453
:1010A000400742E050E0BE016F5F7F4F8D2D0E94F0
:1010B000C609082E000C990B009771F48114910455
:1010C000A104B10421F0C501B4010E94C809A7011F
:1010D000B8018D2D0E94D0070F900F90DF91CF9116
:1010E0001F910F91FF90EF90DF90BF90AF909F9076
:1010F0008F900895EF92FF920F931F9379018A01C9
:1011000020E030E0A9010E9439081F910F91FF9063
:10111000EF900895FC01E60FF71F50834183CB0148
:1011200002960895AF92BF92CF92DF92EF92FF9214
:101130000F931F93CF93DF93EC018B01B22EA32E5D
:101140007C01E60EF71EF701508341836B01F2E04C
:10115000CF0ED11CC80ED91E62E070E0C7010E94FC
:101160000A07F6018083C80103968C0F9D1FFC01BE
:10117000A082F701B48298012B5F3F4FC20FD31FAB
:1011800062E070E00E940A078883C8010696DF913A
:10119000CF911F910F91FF90EF90DF90CF90BF9074
:1011A000AF9008950C9492080F931F93CF93DF9301
:1011B0008B01FC01E60FF71F50834183EB01229660
:1011C000C80FD91F62E070E0CF010E940A07888330
:1011D000C8010396DF91CF911F910F9108950C9450
:1011E000D408AF92BF92CF92DF92EF92FF920F930B
:1011F0001F93CF93DF93EC018B01B22EA32E7C01C2
:10120000E60EF71EF701508341836B01F2E0CF0E2B
:10121000D11CC80ED91E62E070E0C7010E940A0707
:10122000F6018083C80103968C0F9D1FFC01A082EC
:10123000F701B48298012B5F3F4FC20FD31F62E0CA
:1012400070E00E940A078883C8010696DF91CF915B
:101250001F910F91FF90EF90DF90CF90BF90AF90D4
:101260000895AF92BF92CF92DF92EF92FF920F93C9
:101270001F93CF93DF9320FD2AC079016A015C019F
:10128000EC01C60FD71F8A01CE018A199B0998016C
:101290002C193D092E153F0558F0DF91CF911F9174
:1012A0000F91FF90EF90DF90CF90BF90AF90089597
:1012B000F801808188838181898362E070E0CE01BA
:1012C0000E940A078A830E5F1F4F2396DDCF84E0BA
:1012D00090E0E3CF0E94C609082E000C990B0895F8
:1012E000AF92BF92CF92DF92EF92FF920F931F9334
:1012F000CF93DF9304E010E040FD13C07B015695CF
:1013000047956A01CC0CDD1CC40ED51EA6010E94B7
:10131000C409082F880F110B5701E70101151105AA
:1013200001F1C801DF91CF911F910F91FF90EF90D4
:10133000DF90CF90BF90AF9008954A8162E070E057
:10134000CE010E941F07082E000C990B009781F414
:101350008881F5018083898181832396F2E0AF0E35
:10136000B11CCE018E199F098C159D0530F3D9CF84
:101370008C01D7CF8FE190E008951092B9008DE1F4
:101380008093B800089508958FE108958FE108953E
:1013900008950E94C3008DE10E94B8010E9464007C
:1013A0000E94BD0990E080E008956927962769278B
:1013B0007827872778270895A29FB001B39FC0019F
:1013C000A39F700D811D1124911DB29F700D811D71
:1013D0001124911D08950E94DC09A59F900DB49FD2
:1013E000900DA49F800D911D11240895F894FFCFB6
:0C13F000477265656E686F7573650000DC
:00000001FF
