:100000000C944D000C9457000C9457000C9457001E
:100010000C9457000C9457000C9457000C94570004
:100020000C9457000C9457000C9457000C945700F4
:100030000C9457000C9457000C9457000C945700E4
:100040000C9457000C9457000C9457000C945700D4
:100050000C9457000C9457000C9457000C945700C4
:100060000C9457000C9457003E3E205553432045B6
:10007000453435394C203C3C373839303132333413
:10008000003E3E2061743332382D352E632068697E
:10009000203C3C3930313233340011241FBECFEFC5
:1000A000D8E0DEBFCDBF0E94DC000C94E6000C94CB
:1000B00000009BB19F709BB99BB1807F892B8BB94E
:1000C0002A982A9A2A9A2A980895CF93C82F0E948C
:1000D00059008C2F8295807FCF910C9459002C98D9
:1000E0000E94650086E69EE00197F1F70000089502
:1000F0008295880F880F807C860F80680C946F0033
:100100002C9A0E94650086E69EE00197F1F70000B8
:100110000895CF93DF93EC01FE0184912196811124
:1001200003C0DF91CF9108950E948000F5CFCF9357
:10013000DF93EC018991811103C0DF91CF91089584
:100140000E948000F7CF8AB1806F8AB984B1846140
:1001500084B92C988FEF9BE60197F1F700C000005F
:1001600080E30E9459008FEF93E20197F1F700C0FE
:10017000000080E30E9459008DED90E00197F1F7B7
:1001800080E30E94590086E69EE00197F1F70000A7
:1001900080E20E94590086E69EE00197F1F7000098
:1001A00088E20E946F008FE00C946F0086E69EE06C
:1001B0000197F1F7000008950E94A30063E081E039
:1001C0000E94780081E30E946500FCCFF894FFCF85
:00000001FF
