:100000000C944D000C9462000C9462000C946200FD
:100010000C9462000C9462000C9462000C946200D8
:100020000C9462000C9462000C9462000C946200C8
:100030000C9462000C9462000C9462000C946200B8
:100040000C9462000C9462000C9462000C946200A8
:100050000C9462000C9462000C9462000C94620098
:100060000C9462000C9462003E3E2061743332387E
:100070002D352E63206869203C3C393031323334D1
:10008000003E3E205553432045453435394C203CF5
:100090003C37383930313233340011241FBECFEFB2
:1000A000D8E0DEBFCDBF12E0A0E0B1E0E2E4F3E3D0
:1000B00002C005900D92AE3DB107D9F70E946400D1
:1000C0000C949F190C9400002F923F924F925F92D4
:1000D0006F927F928F929F92AF92BF92CF92DF9258
:1000E000EF92FF920F931F93DF93CF93CDB7DEB7BD
:1000F000C253D1400FB6F894DEBF0FBECDBF0E94F1
:10010000320381E063E00E94290383E60E94FF023C
:100110000E94640C8FE290E00E941B0D0E94470435
:100120000E9456050E94E104CE010196BE016D5F5A
:100130007F4FAE014B5F5F4F0E94E6059C01CE01F1
:1001400043962115310511F14DB75EB74850504027
:100150000FB6F8945EBF0FBE4DBFEDB7FEB7319638
:10016000ADB7BEB712969C938E93119780E190E045
:100170009383828380E091E0958384833783268311
:100180000E94F116EDB7FEB738962BC02DB73EB7DB
:100190002C5030400FB6F8943EBF0FBE2DBFEDB7C8
:1001A000FEB73196ADB7BEB712969C938E9311975A
:1001B00080E190E09383828381E191E09583848361
:1001C00089819A81978386838B819C81918780879F
:1001D0008D819E81938782870E94F116EDB7FEB7CD
:1001E0003C960FB6F894FEBF0FBEEDBF81E00E94B3
:1001F000210380E060E00E94290383E291E00E94F5
:10020000070381E060E00E942903CE0143960E942B
:1002100007030E947D05892B41F080E060E00E9489
:10022000290384E391E00E94070343E2442E512C0A
:100230004C0E5D1E31E1232E312C60EA76E881E020
:1002400090E00E946B0C18861F82CE0107960E94D8
:100250004706009779F14DB75EB7485050400FB64A
:10026000F8945EBF0FBE4DBFEDB7FEB73196ADB788
:10027000BEB712965C924E9211973382228245E469
:1002800051E055834483978386830E94F1168DB78E
:100290009EB708960FB6F8949EBF0FBE8DBF81E043
:1002A0000E94210380E060E00E942903C2010E94B5
:1002B0000703C3CF8F819885892B09F4BECFCE0168
:1002C0000996BE01655F7F4FAE01415F5F4F0E949F
:1002D000E807009751F1ADB7BEB718970FB6F8947D
:1002E000BEBF0FBEADBFEDB7FEB7319612965C92A2
:1002F0004E9211973382228246E551E05583448322
:10030000978386830E94F1168DB79EB708960FB625
:10031000F8949EBF0FBE8DBF81E00E94210380E054
:1003200060E00E942903C20116C069847A846114C6
:100330007104A1F481E00E94210380E060E00E944A
:10034000290389E691E00E94070381E060E00E94B2
:1003500029038AE791E00E940703CEC0EB84FC8466
:100360000D851E85C801B70123E0660F771F881F22
:10037000991F2A95D1F76E0D7F1D801F911F25E0D3
:1003800030E040E050E00E947D1649015A0120E033
:100390003DE740E050E0820E931EA41EB51E4DB70F
:1003A0005EB7405150400FB6F8945EBF0FBE4DBFD0
:1003B000CDB6DEB60894C11CD11CADB7BEB712963F
:1003C0005C924E921197F6013382228226E831E048
:1003D0003583248377826682C801B70128EE33E033
:1003E00040E050E00E947D16D60118962D933D9373
:1003F0004D935C931B97C801B70128EE33E040E0B2
:1004000050E00E947D1624E630E040E050E00E947B
:100410007D16F60124873587468757870E94F11697
:100420002DB73EB7205F3F4F0FB6F8943EBF0FBECB
:100430002DBF81E00E94210380E060E00E9429033B
:10044000C2010E9407034DB75EB74E5050400FB631
:10045000F8945EBF0FBE4DBF0DB71EB70F5F1F4FA5
:10046000ADB7BEB712965C924E921197F8013382E7
:1004700022822EE931E035832483C501B40128EEC0
:1004800033E040E050E00E947D16D80116962D938F
:100490003D934D935C931997C501B40128EE33E069
:1004A00040E050E00E947D1624E630E040E050E05D
:1004B0000E947D16F80122873387448755870E9462
:1004C000F1162DB73EB7225F3F4F0FB6F8943EBFEF
:1004D0000FBE2DBF81E060E00E942903C2010E948F
:1004E000070381E06AE00E9429038FED0E94FF026A
:1004F00081E060E10E94290368E873E180E090E018
:100500000E946B0C0E94B70E7B018C0180E00E9460
:10051000780E6C014DB75EB74A5050400FB6F89454
:100520005EBF0FBE4DBFEDB7FEB7319624E330E09E
:100530002C0F3D1FADB7BEB712963C932E9311976B
:100540004FEF50E05383428382EB91E095838483A5
:10055000E682F782008711870E94F116BC01ADB7D1
:10056000BEB71A960FB6F894BEBF0FBEADBFCE0190
:10057000C4960E94330DEDB7FEB738970FB6F894C6
:10058000FEBF0FBEEDBF319624E330E02C0F3D1FC0
:10059000ADB7BEB712963C932E9311974FEF50E034
:1005A0005383428385EC91E095838483D782C6820E
:1005B0000E94F116BC01ADB7BEB718960FB6F894FD
:1005C000BEBF0FBEADBFCE01C4960E94330D35CE67
:1005D0009BB19F709BB99BB1807F892B8BB92A9867
:1005E0002A9A2A9A2A9808951F93182F0E94E8029F
:1005F000812F8295807F0E94E8021F9108952C9A96
:100600000E94F40286E69EE00197F1F70895CF93E9
:10061000DF93EC0102C00E94FF0289918823D9F781
:10062000DF91CF910895CF93DF93EC0102C00E9438
:10063000FF02FE01219684918823C9F7DF91CF91B3
:1006400008952C980E94F40286E69EE00197F1F747
:1006500008958295880F880F807C860F80680E949D
:10066000210308950F931F938AB1806F8AB984B1D3
:10067000846184B92C9880E09CE60197F1F780E3CF
:100680000E94E80280E094E20197F1F780E30E9483
:10069000E8028DED90E00197F1F780E30E94E80217
:1006A00006E61EE0C8010197F1F780E20E94E80229
:1006B000C8010197F1F788E20E9421038FE00E94B0
:1006C00021031F910F91089586E69EE00197F1F7AF
:1006D0000895CF92DF92EF92FF920F931F93A82F6E
:1006E0004115510521F40115110509F4A8C084EA4A
:1006F0008093BC008091BC0087FFFCCF8091B90043
:10070000887F883009F06BC08A2F8E7F8093BB0072
:1007100084E88093BC008091BC0087FFFCCF80916F
:10072000B900887F8831D1F0803209F058C094E94F
:100730009093BC0054C081918093BB006093BC0037
:100740008091BC0087FFFCCF8091B900887F883200
:1007500049F0803309F043C080E3E9CFFB01460F45
:10076000571F64E84E175F0731F7F901020F131F97
:1007700024E80EC081918093BB002093BC0080913F
:10078000BC0087FFFCCF8091B900887F883209F7D1
:100790000E171F0779F720E1C114D10411F43BC0F3
:1007A00028E084EA8093BC008091BC0087FFFCCFE6
:1007B0008091B900887F281312C0A160A093BB006C
:1007C00084E88093BC008091BC0087FFFCCF8091BF
:1007D000B900887F803451F0883409F4A8CF1F9184
:1007E0000F91FF90EF90DF90CF900895F70194EC78
:1007F00081E0C816D10489F484E88093BC0080911C
:10080000BC0087FFFCCF8091B900887F883539F71D
:100810008091BB00808380E08ACF9093BC00809160
:10082000BC0087FFFCCF8091B900887F21E0C21A0D
:10083000D1088035A1F68091BB008193D9CFC11436
:10084000D10409F0ADCF80E0CACF1092B9008093F7
:10085000B80008950F931F93DF93CF9300D0CDB7C7
:10086000DEB78E010F5F1F4FC80160E070E04CEAF9
:1008700051E20E94310BAC0185ECB8010E94110CD1
:100880000F900F90CF91DF911F910F9108950F93CB
:100890001F93DF93CF9300D0CDB7DEB78E010F5FEC
:1008A0001F4FC80160E070E046EF56E30E94310B35
:1008B000AC0185ECB8010E94110C60E27EE480E09E
:1008C00090E00E946B0C80E090E00F900F90CF9131
:1008D000DF911F910F9108950F931F93DF93CF9393
:1008E00000D0CDB7DEB78E010F5F1F4FC80160E0AB
:1008F00070E040EE56E30E94310BAC0185ECB8018C
:100900000E94110C8C01009731F468EE73E080E0D6
:1009100090E00E946B0CC8010F900F90CF91DF9177
:100920001F910F9108950F931F93DF93CF9300D0E2
:10093000CDB7DEB78E010F5F1F4FC80160E070E0DA
:1009400046E951E20E94310BAC0185ECB8010E94EE
:10095000110C8C01009731F460E573EC80E090E0BD
:100960000E946B0CC8010F900F90CF91DF911F91E7
:100970000F9108950F931F93DF93CF9300D0CDB7BE
:10098000DEB78E010F5F1F4FC80160E070E04DE9D8
:1009900051E20E94310BAC0185ECB8010E94110CB0
:1009A0008C01009731F460E47BE48CE490E00E94D9
:1009B0006B0CC8010F900F90CF91DF911F910F9199
:1009C00008950F931F93DF93CF9300D0CDB7DEB779
:1009D0008E010F5F1F4FC80160E070E046E456E3F0
:1009E0000E94310BAC0185ECB8010E94110C8C0106
:1009F000009731F460E27EE480E090E00E946B0CAE
:100A0000C8010F900F90CF91DF911F910F91089522
:100A10000F931F93DF93CF9300D0CDB7DEB78E0136
:100A20000F5F1F4FC80160E070E042E356E30E9491
:100A3000310BAC0185ECB8010E94110C8C010097C0
:100A400031F460E075E38CE090E00E946B0CC8012B
:100A50000F900F90CF91DF911F910F9108950F93F9
:100A60001F93DF93CF9300D0CDB7DEB78E010F5F1A
:100A70001F4FC80160E070E045E156E30E94310B72
:100A8000AC0185ECB8010E94110C8C01009731F487
:100A900060E075E38CE090E00E946B0CC8010F9061
:100AA0000F90CF91DF911F910F9108950F931F9396
:100AB000DF93CF9300D0CDB7DEB78E010F5F1F4F0E
:100AC000C80160E070E046E85FE30E94310BAC01D2
:100AD00085ECB8010E94110C8C01009731F460E2A2
:100AE00071EA87E090E00E946B0CC8010F900F90B4
:100AF000CF91DF911F910F9108950F931F93DF9373
:100B0000CF9300D0CDB7DEB78E010F5F1F4FC80166
:100B100060E070E041EB51E20E94310BAC0185ECEA
:100B2000B8010E94110C8C01009731F468EE73E05B
:100B300080E090E00E946B0CC8010F900F90CF9165
:100B4000DF911F910F910895CF92DF92EF92FF9264
:100B50000F931F93DF93CF9300D00F92CDB7DEB7E3
:100B60006C017E010894E11CF11CC70160E070E09B
:100B700049E356E30E94310BAC0185ECB7010E94BA
:100B8000110C8C010097A9F460E876E988E990E0FF
:100B90000E946B0C85ECB70142E050E00E94170CFC
:100BA0008C01009731F4C7010E947409F60191830A
:100BB0008083C8010F900F900F90CF91DF911F910C
:100BC0000F91FF90EF90DF90CF9008958F929F92BA
:100BD000AF92BF92CF92DF92EF92FF920F931F934B
:100BE000DF93CF93CDB7DEB729970FB6F894DEBF6A
:100BF0000FBECDBF6C015B014A017E010894E11C70
:100C0000F11CC70160E070E042E856E30E94310B3E
:100C1000AC0185ECB7010E94110C8C01009719F50D
:100C200068EE73E080E090E00E946B0C85ECB70109
:100C300046E050E00E94170C8C010097A1F4C70118
:100C40000E947409F60191838083CE0103960E946D
:100C50007409F50191838083CE0105960E94740981
:100C6000F40191838083C80129960FB6F894DEBF02
:100C70000FBECDBFCF91DF911F910F91FF90EF90ED
:100C8000DF90CF90BF90AF909F908F900895CF92BC
:100C9000DF92EF92FF920F931F93DF93CF9300D0D9
:100CA0000F92CDB7DEB76C017E010894E11CF11CF8
:100CB000C70160E070E048EB54EE0E94310BAC01DC
:100CC00085ECB7010E94110C8C010097E1F468EEED
:100CD00073E080E090E00E946B0C85ECB70142E08D
:100CE00050E00E94170C8C01009769F4C7010E9424
:100CF0007409F601118210829770892B21F081E02E
:100D000090E091838083C8010F900F900F90CF9156
:100D1000DF911F910F91FF90EF90DF90CF9008959A
:100D2000CF92DF92EF92FF920F931F93DF93CF93B7
:100D300000D00F92CDB7DEB76C017E010894E11CA4
:100D4000F11CC70160E070E043E153E20E94310B07
:100D5000AC0185ECB7010E94110C8C010097A9F43D
:100D600068EE73E080E090E00E946B0C85ECB701C8
:100D700042E050E00E94170C8C01009731F4C7014B
:100D80000E947409F60191838083C8010F900F902F
:100D90000F90CF91DF911F910F91FF90EF90DF9017
:100DA000CF900895CF92DF92EF92FF920F931F930F
:100DB000DF93CF9300D00F92CDB7DEB76C017E01E9
:100DC0000894E11CF11CC70160E070E042E253E2CC
:100DD0000E94310BAC0185ECB7010E94110C8C0113
:100DE0000097A9F468EE73E080E090E00E946B0C3D
:100DF00085ECB70142E050E00E94170C8C0100978F
:100E000031F4C7010E947409F60191838083C801FF
:100E10000F900F900F90CF91DF911F910F91FF9046
:100E2000EF90DF90CF900895CF92DF92EF92FF92F4
:100E30000F931F93DF93CF9300D00F92CDB7DEB700
:100E40006C017E010894E11CF11CC70160E070E0B8
:100E500048E153E20E94310BAC0185ECB7010E94DE
:100E6000110C8C010097A9F468EE73E080E090E02B
:100E70000E946B0C85ECB70142E050E00E94170C19
:100E80008C01009731F4C7010E947409F601918327
:100E90008083C8010F900F900F90CF91DF911F9129
:100EA0000F91FF90EF90DF90CF900895EF92FF9217
:100EB0000F931F93DF93CF9300D0CDB7DEB77C01A4
:100EC000CE0101960E9414078C010097B1F469814C
:100ED0007A8180E090E023E735E540E050E00E9431
:100EE0005E162DE095958795779567952A95D1F7AC
:100EF000F7016083718382839383C8010F900F9001
:100F0000CF91DF911F910F91FF90EF9008958F92F5
:100F10009F92AF92BF92CF92DF92EF92FF920F9388
:100F20001F93DF93CF93CDB7DEB729970FB6F89411
:100F3000DEBF0FBECDBF6C015B014A017E0108948C
:100F4000E11CF11CC70160E070E045E05CEE0E942E
:100F5000310BAC0185ECB7010E94110C8C0100979C
:100F600019F568EE73E080E090E00E946B0C85EC70
:100F7000B70146E050E00E94170C8C010097A1F4E5
:100F8000C7010E947409F60191838083CE01039604
:100F90000E947409F50191838083CE0105960E9419
:100FA0007409F40191838083C80129960FB6F894DF
:100FB000DEBF0FBECDBFCF91DF911F910F91FF908C
:100FC000EF90DF90CF90BF90AF909F908F9008955B
:100FD000CF92DF92EF92FF920F931F93DF93CF9305
:100FE00000D000D0CDB7DEB77B016A01BE016F5FD4
:100FF0007F4FAE014D5F5F4F0E9487078C010097C6
:1010000081F569817A8180E090E023E735E540E071
:1010100050E00E945E164DE095958795779567950F
:101020004A95D1F7685C7F4A80409040F701608321
:101030007183828393836B817C8180E090E024EDD7
:1010400030E340E050E00E945E163DE095958795C4
:10105000779567953A95D1F7F6016083718382831E
:101060009383C8010F900F900F900F90CF91DF9155
:101070001F910F91FF90EF90DF90CF900895EF9226
:10108000FF920F931F93DF93CF9300D000D00F9266
:10109000CDB7DEB77C018E010F5F1F4FC80160E046
:1010A00070E046E154E20E94310BBC01C801A70187
:1010B0000E947B0BAC0185ECB8010E94110C8C01E5
:1010C000009731F468EE73E080E090E00E946B0CD2
:1010D000C8010F900F900F900F900F90CF91DF915C
:1010E0001F910F91FF90EF900895CF92DF92EF92B2
:1010F000FF920F931F93DF93CF9300D000D00F92F6
:10110000CDB7DEB78C016B017E010894E11CF11CA8
:10111000C70160E070E04FE256E30E94310BBC0172
:10112000C701A8010E947B0BAC0185ECB7010E94AE
:10113000110C8C010097A9F460E87AE186E090E058
:101140000E946B0C85ECB70142E050E00E94170C46
:101150008C01009731F4C7010E947409F601918354
:101160008083C8010F900F900F900F900F90CF9138
:10117000DF911F910F91FF90EF90DF90CF90089536
:10118000EF92FF920F931F93DF93CF9300D000D085
:101190000F92CDB7DEB77C018E010F5F1F4FC801E4
:1011A00060E070E040E050EE0E94310BBC01C801ED
:1011B000A7010E947B0BAC0185ECB8010E94110CC9
:1011C0008C01009731F468EE73E080E090E00E94BB
:1011D0006B0CC8010F900F900F900F900F90CF9154
:1011E000DF911F910F91FF90EF900895EF92FF9282
:1011F0000F931F93DF93CF9300D000D00F92CDB702
:10120000DEB77C018E010F5F1F4FC80160E070E008
:1012100047E254E20E94310BBC01C801A7010E94C1
:101220007B0BAC0185ECB8010E94110C8C0100977E
:1012300031F468EE73E080E090E00E946B0CC8012E
:101240000F900F900F900F900F90CF91DF911F9103
:101250000F91FF90EF900895EF92FF920F931F93DD
:10126000DF93CF9300D000D00F92CDB7DEB77C01D3
:101270008E010F5F1F4FC80160E070E04DE154E246
:101280000E94310BBC01C801A7010E947B0BAC017D
:1012900085ECB8010E94110C8C01009731F468EEC6
:1012A00073E080E090E00E946B0CC8010F900F90FB
:1012B0000F900F900F90CF91DF911F910F91FF90A2
:1012C000EF9008952FEE3FE240E050E00E945E165E
:1012D000DC01CB015FE0B595A795979587955A9569
:1012E000D1F70E942C090895FC01808191819827F3
:1012F000892798270895FC016081718182819381FB
:101300000E94010F0895FC0180819181982789270F
:10131000982708950C947B090E947B090895FA018F
:1013200090838183728363830895FB01908381831B
:101330000895FA0190838183728363830895FB018A
:101340009083818308950C948F09FB01480F591FE6
:101350008417950709F40895DC012D91CD0121939F
:10136000F7CFFC01680F791F8FEF21E3E617F7072E
:1013700009F408959191892798E087FF05C0880FA7
:1013800082279150D1F7F2CF880FFBCFCF93C42F94
:101390000E94B10991E08C1301C090E0892FCF9198
:1013A0000895CF93DF931F92CDB7DEB786E0898390
:1013B00041E050E0BE016F5F7F4F80E00E94E80C8B
:1013C000082E000C990B0F90DF91CF910895EF92AA
:1013D000FF920F931F93CF93DF93EC01022F78833B
:1013E00069837A01229610E010130CC023E0129F4B
:1013F000C00111240296DF91CF911F910F91FF90B0
:10140000EF900895F7018181F2E0EF0EF11C8883DF
:10141000F70132978081898362E070E0CE010E94FB
:10142000B1098A831F5F2396DFCF8F929F92AF927D
:10143000BF92CF92DF92EF92FF920F931F93CF93C1
:10144000DF93CDB7DEB7C054D1090FB6F894DEBF35
:101450000FBECDBF8B015A01AA0CBB1CA40EB51E3A
:10146000A5019E012F5F3F4F4901B9010E94010D67
:10147000C82E880FDD0878018401C114D10471F1F0
:10148000C601C05CDF4F0FB6F894DEBF0FBECDBF04
:10149000DF91CF911F910F91FF90EF90DF90CF9050
:1014A000BF90AF909F908F900895F801428162E0C5
:1014B00070E0C8010E94C609082E000C990B009725
:1014C000A1F4F8018081F7018083F8018181F7019F
:1014D00081830D5F1F4FF2E0EF0EF11CC8018819E8
:1014E00099098A159B0508F3CBCF6C01C9CF0F93DF
:1014F0001F93CF93DF938B01EA010E94150AAC0181
:1015000090E04115510599F0CA01DF91CF911F91EB
:101510000F910895220F331FF801E20FF31F20816E
:101520003181322723273227318320839F5F292F60
:1015300030E02C173D0770F3E7CF1F93CF93DF9375
:1015400000D0CDB7DEB7182F20E050E040E0CE014C
:1015500001960E94E70942E050E0BE016F5F7F4FB5
:10156000812F0E94E80C082E000C990B0F900F9011
:10157000DF91CF911F9108951F93CF93DF93CDB744
:10158000DEB7A0970FB6F894DEBF0FBECDBF182F01
:10159000CE0101960E94E709AC01BE016F5F7F4F4B
:1015A000812F0E94E80C082E000C990BA0960FB614
:1015B000F894DEBF0FBECDBFDF91CF911F9108958C
:1015C0008F929F92AF92BF92DF92EF92FF920F9312
:1015D0001F93CF93DF9300D0CDB7DEB7D82E49014C
:1015E0005A0120E050E040E0CE0101960E94E70958
:1015F00042E050E0BE016F5F7F4F8D2D0E94E80CEE
:10160000082E000C990B009771F481149104A10429
:10161000B10421F0C501B4010E946B0CA701B8010F
:101620008D2D0E94770A0F900F90DF91CF911F911F
:101630000F91FF90EF90DF90BF90AF909F908F90B1
:101640000895EF92FF920F931F9379018A0120E092
:1016500030E0A9010E94E00A1F910F91FF90EF90E6
:101660000895FC01E60FF71F50834183CB010296DA
:101670000895AF92BF92CF92DF92EF92FF920F93B5
:101680001F93CF93DF93EC018B01B22EA32E7C012D
:10169000E60EF71EF701508341836B01F2E0CF0E97
:1016A000D11CC80ED91E62E070E0C7010E94B109CA
:1016B000F6018083C80103968C0F9D1FFC01A08258
:1016C000F701B48298012B5F3F4FC20FD31F62E036
:1016D00070E00E94B1098883C8010696DF91CF911E
:1016E0001F910F91FF90EF90DF90CF90BF90AF9040
:1016F00008950C94390B0F931F93CF93DF938B01B5
:10170000FC01E60FF71F50834183EB012296C80FBF
:10171000D91F62E070E0CF010E94B1098883C8013F
:101720000396DF91CF911F910F9108950C947B0B3D
:10173000AF92BF92CF92DF92EF92FF920F931F93DF
:10174000CF93DF93EC018B01B22EA32E7C01E60E2A
:10175000F71EF701508341836B01F2E0CF0ED11CDD
:10176000C80ED91E62E070E0C7010E94B109F601FF
:101770008083C80103968C0F9D1FFC01A082F70196
:10178000B48298012B5F3F4FC20FD31F62E070E01D
:101790000E94B1098883C8010696DF91CF911F91FD
:1017A0000F91FF90EF90DF90CF90BF90AF90089592
:1017B000AF92BF92CF92DF92EF92FF920F931F935F
:1017C000CF93DF9320FD2AC079016A015C01EC010F
:1017D000C60FD71F8A01CE018A199B0998012C19BF
:1017E0003D092E153F0558F0DF91CF911F910F91C4
:1017F000FF90EF90DF90CF90BF90AF900895F801E9
:10180000808188838181898362E070E0CE010E94BB
:10181000B1098A830E5F1F4F2396DDCF84E090E0ED
:10182000E3CF0E94E80C082E000C990B0895AF92AC
:10183000BF92CF92DF92EF92FF920F931F93CF93BD
:10184000DF9304E010E040FD13C07B0156954795FF
:101850006A01CC0CDD1CC40ED51EA6010E94010D30
:10186000082F880F110B5701E7010115110501F130
:10187000C801DF91CF911F910F91FF90EF90DF9002
:10188000CF90BF90AF9008954A8162E070E0CE01A2
:101890000E94C609082E000C990B009781F48881DC
:1018A000F5018083898181832396F2E0AF0EB11C1C
:1018B000CE018E199F098C159D0530F3D9CF8C016F
:1018C000D7CF8FE190E008951092B9008DE1809319
:1018D000B80008950895AF92BF92CF92DF92EF9231
:1018E000FF920F931F930E94F0135B016C0122E59E
:1018F00039E44DE150E40E9408117B018C0120E0A5
:1019000030E040E85FE30E940E13882314F461E0A6
:1019100054C0C801B70120E030E04FE753E40E9413
:10192000AE1218160CF045C0C601B50120E030E03B
:101930004AE754E40E9402125B016C0126E636E697
:1019400046EE54E40E9408117B018C0120E030E057
:1019500040E85FE30E940E1388231CF461E070E00E
:1019600024C0C801B70120E03FEF4FE757E40E94D1
:10197000AE121816B4F4C601B50120E030E040E222
:1019800051E40E9408110E94320F88EB90E005C0DC
:10199000FC013197F1F76150704061157105C1F795
:1019A0000EC0C801B7010E94320FCB010197F1F7B9
:1019B00006C0C801B7010E94320F6A95F1F71F9166
:1019C0000F91FF90EF90DF90CF90BF90AF90089570
:1019D000CF92DF92EF92FF920F931F939B018A01A8
:1019E00060E070E040E050E0EE24FF24CC24DD24F1
:1019F0000E9469031F910F91FF90EF90DF90CF90AD
:101A00000895CF92DF92EF92FF920F931F937B0185
:101A10006A01815060E070E040E050E020E030E09A
:101A200000E010E00E9469031F910F91FF90EF907A
:101A3000DF90CF9008959093C5008093C400E1ECAF
:101A4000F0E080818860808380818061808386E08F
:101A50008093C2000895982F8091C00085FFFCCF2D
:101A60009093C6000895AC0120E030E00CC0FA016C
:101A7000E20FF31FE0818091C00085FFFCCFE0936F
:101A8000C6002F5F3F4F261737078CF30895AC0130
:101A90009B01461757070CF49A01C9010895089550
:101AA000AF92BF92CF92DF92EF92FF920F931F936C
:101AB000CF93DF936C017B015A0100E010E021C05D
:101AC000E701C01BD10B84E0C130D80710F0C0E0A3
:101AD000D4E0C7018C1B9D0B0817190718F420E0F0
:101AE00030E001C09501C601800F911FBE01A90120
:101AF0000E94500D892B19F420E030E007C00C0F34
:101B00001D1F0E151F05E0F221E030E0C901DF9135
:101B1000CF911F910F91FF90EF90DF90CF90BF90EA
:101B2000AF9008952F923F924F925F926F927F9263
:101B30008F929F92AF92BF92CF92DF92EF92FF92DD
:101B40000F931F93DF93CF9300D000D000D0CDB779
:101B5000DEB75C834B83622E89836A837724822F6E
:101B600090E09E838D831801442455249FC08D806E
:101B70009E808718910890E2891691041CF080E2FB
:101B8000882E912C83E960E070E040E050E09E01F7
:101B90002F5F3F4F02E010E0EE24FF24CC24DD2431
:101BA0000E946903882309F487C0C201B1010E9421
:101BB000F0135B016C0122E539E44DE150E40E9431
:101BC00008117B018C0120E030E040E85FE30E94D7
:101BD0000E13882314F461E053C0C801B70120E05C
:101BE00030E04FE753E40E94AE1218160CF044C0E8
:101BF000C601B50120E030E04AE754E40E94021239
:101C00005B016C0126E636E646EE54E40E940811BC
:101C10007B018C0120E030E040E85FE30E940E137E
:101C200088231CF461E070E023C0C801B70120E004
:101C30003FEF4FE757E40E94AE121816ACF4C6010E
:101C4000B50120E030E040E251E40E9408110E941A
:101C5000320F06C088EB90E00197F1F761507040B9
:101C600061157105B9F70EC0C801B7010E94320FA6
:101C7000CB010197F1F706C0C801B7010E94320FEE
:101C80006A95F1F7EB80FC80E70CF11C83E960E0DA
:101C900070E040E050E020E030E000E010E0C82CD0
:101CA000DD240E946903882339F0780C761408F447
:101CB0005ECF21E030E002C020E030E0C90126968E
:101CC0000FB6F894DEBF0FBECDBFCF91DF911F914D
:101CD0000F91FF90EF90DF90CF90BF90AF909F90CB
:101CE0008F907F906F905F904F903F902F900895CE
:101CF000BF92CF92DF92EF92FF920F931F93DF93E9
:101D0000CF9300D0CDB7DEB728EBE22E2BE0F22E3A
:101D100091E2B92EB80E6E010894C11CD11C8FE05F
:101D20006B2DA60122E087010E94920D892B39F0CC
:101D3000998180E02A8130E0282B392B0BC088EE76
:101D400093E0E80EF91E90E4E9169FE1F90639F7F1
:101D50002FEF3FEFC9010F900F90CF91DF911F91AF
:101D60000F91FF90EF90DF90CF90BF9008950F9369
:101D70001F93DF93CF9300D000D0CDB7DEB780E0C4
:101D800069E0AE014F5F5F4F24E008EE13E00E9470
:101D9000920D698170E080E090E0962F8827772788
:101DA00066272A8130E040E050E0A901332722274E
:101DB000622B732B842B952B2C8130E040E050E07C
:101DC000622B732B842B952B2B8130E040E050E06D
:101DD000542F432F322F2227622B732B842B952BCA
:101DE0000E943E1320E030E040E857E30E940811D3
:101DF0000F900F900F900F90CF91DF911F910F9147
:101E00000895EF92FF920F931F93162F0027FF2440
:101E1000EE24292F332744275527E22AF32A042BBF
:101E2000152B9B01AC01207030705070232F342F84
:101E3000452F552747FD5A95E22AF32A042B152BE7
:101E4000607080709070982F872F762F6627E62A13
:101E5000F72A082B192BB701C8011F910F91FF908A
:101E6000EF900895EF92FF920F931F937B018C01E7
:101E700020E030E040E05FE40E94DE1288238CF036
:101E8000C801B70120E030E040E05FE40E94AA1002
:101E90000E949C139B01AC012050304040405048B0
:101EA00006C0C801B7010E949C139B01AC01B90197
:101EB000CA011F910F91FF90EF900895A0E0B0E04C
:101EC000E4E6FFE00C94BA16DC012B01FA019C91C8
:101ED000923008F439C1EB018881823008F433C1B3
:101EE000943069F4843009F02FC111969C911197B8
:101EF0008981981709F428C1A5EDB1E025C1843086
:101F000009F421C18230A9F4923009F01DC19A016F
:101F1000AD0188E0EA010990AE01E90109929E0154
:101F20008150C1F7E201898111969C9189238183B7
:101F300008C1923009F407C112962D903C90139776
:101F4000EB018A819B811496AD90BD90CD90DC9081
:101F50001797EC80FD800E811F819101281B390BA2
:101F6000B90137FF04C066277727621B730B603205
:101F700071050CF061C0121613066CF537014801AB
:101F8000062E04C096948794779467940A94D2F7A7
:101F900021E030E040E050E004C0220F331F441F36
:101FA000551F6A95D2F721503040404050402E21B5
:101FB0003F2140235123211531054105510521F0D1
:101FC00021E030E040E050E079018A01E628F7287E
:101FD000082919293CC0232BD1F1260E371E3501C3
:101FE0004601062E04C096948794779467940A94C9
:101FF000D2F721E030E040E050E004C0220F331F70
:10200000441F551F6A95D2F7215030404040504040
:102010002A213B214C215D21211531054105510526
:1020200021F021E030E040E050E059016A01A628AB
:10203000B728C828D9280BC0821593052CF01C019D
:10204000AA24BB24650103C0EE24FF248701119656
:102050009C91D20111968C91981709F445C099234F
:1020600039F0A80197012A193B094C095D0906C0FE
:10207000A60195012E193F09400B510B57FD08C0D1
:1020800011823382228224833583468357831DC085
:1020900081E081833382228288279927DC01821B99
:1020A000930BA40BB50B84839583A683B7830DC0D4
:1020B000220F331F441F551F2483358346835783C4
:1020C0008281938101979383828324813581468124
:1020D0005781DA01C9010197A109B1098F5F9F4FAB
:1020E000AF4FBF4328F30BC0918333822282EA0CA7
:1020F000FB1C0C1D1D1DE482F5820683178383E003
:102100008083248135814681578157FF1AC0C901D8
:10211000AA2797FDA095BA2F81709070A070B0701B
:102120005695479537952795822B932BA42BB52B46
:1021300084839583A683B783828193810196938359
:102140008283DF0101C0D201CD01CDB7DEB7E2E16C
:102150000C94D616A0E2B0E0E0EBF0E10C94C616C9
:1021600069837A838B839C832D833E834F83588737
:10217000E9E0EE2EF12CEC0EFD1ECE010196B7012A
:102180000E948D158E010F5E1F4FCE010596B8017E
:102190000E948D158A8991E089278A8BC701B80131
:1021A000AE01475E5F4F0E945E0F0E94B814A0967A
:1021B000E6E00C94E216A0E2B0E0E1EEF0E10C946F
:1021C000C61669837A838B839C832D833E834F83DA
:1021D0005887F9E0EF2EF12CEC0EFD1ECE01019692
:1021E000B7010E948D158E010F5E1F4FCE0105961F
:1021F000B8010E948D15C701B801AE01475E5F4F5F
:102200000E945E0F0E94B814A096E6E00C94E216BD
:10221000A0E2B0E0EEE0F1E10C94BA1669837A83B3
:102220008B839C832D833E834F835887CE010196F9
:10223000BE01675F7F4F0E948D15CE010596BE01DE
:102240006F5E7F4F0E948D159985923088F0898945
:102250008230C8F0943019F4823051F404C08430D4
:1022600029F4923081F485ED91E0C6C0923049F4B2
:1022700020E09A858A89981321E02A87CE01099661
:10228000BBC0823049F420E09A858A89981321E006
:102290002A8BCE014196B0C02D843E844F8458884D
:1022A0006D887E888F88988CEE24FF248701AA246D
:1022B000BB24650140E050E060E070E0E0E0F0E069
:1022C000C10181709070892BE9F0E60CF71C081DA4
:1022D000191D9A01AB012A0D3B1D4C1D5D1D80E0AF
:1022E00090E0A0E0B0E0E614F7040805190520F43A
:1022F00081E090E0A0E0B0E0BA01A901480F591FC9
:102300006A1F7B1FAA0CBB1CCC1CDD1C97FE08C0DF
:1023100081E090E0A0E0B0E0A82AB92ACA2ADB2A2E
:102320003196E032F10549F0660C771C881C991C47
:102330005694479437942794C3CFFA85EA892B891A
:102340003C898B859C85280F391F2E5F3F4F17C016
:10235000CA0181709070892B61F016950795F794EA
:10236000E79480E090E0A0E0B0E8E82AF92A0A2BA0
:102370001B2B76956795579547952F5F3F4F77FDB8
:10238000E7CF0CC0440F551F661F771F17FD416034
:10239000EE0CFF1C001F111F21503040403090E018
:1023A000590790E0690790E4790760F32B8F3C8F21
:1023B000DB01CA018F779070A070B07080349105F6
:1023C000A105B10561F447FD0AC0E114F10401055E
:1023D000110529F0405C5F4F6F4F7F4F40781A8E98
:1023E000FE1711F081E08A8F4D8F5E8F6F8F78A37B
:1023F00083E0898FCE0149960E94B814A096E2E14D
:102400000C94D616A8E1B0E0E8E0F2E10C94C21614
:1024100069837A838B839C832D833E834F83588784
:10242000B9E0EB2EF12CEC0EFD1ECE010196B701AA
:102430000E948D158E010F5E1F4FCE010596B801CB
:102440000E948D152985223008F47EC039893230EA
:1024500010F4B8017CC08A859A8989278A8724303C
:1024600011F0223031F4231709F06EC065ED71E0F0
:102470006EC0343039F41D861E861F86188A1C866D
:102480001B8604C0323021F484E08987B7015FC025
:102490002B853C858B899C89281B390B3C872B8796
:1024A000ED84FE840F851889AD88BE88CF88D88CCE
:1024B000EA14FB040C051D0540F4EE0CFF1C001F84
:1024C000111F215030403C872B8720E030E040E056
:1024D00050E080E090E0A0E0B0E460E070E0EA145A
:1024E000FB040C051D0540F0282B392B4A2B5B2BD8
:1024F000EA18FB080C091D09B695A79597958795CD
:10250000EE0CFF1C001F111F6F5F7F4F6F317105B5
:1025100031F7DA01C9018F779070A070B070803404
:102520009105A105B10561F427FD0AC0E114F1048C
:102530000105110529F0205C3F4F4F4F5F4F207878
:102540002D873E874F87588BBE01675F7F4FCB013A
:102550000E94B8146896EAE00C94DE16A8E1B0E098
:10256000E4EBF2E10C94C61669837A838B839C8337
:102570002D833E834F83588789E0E82EF12CEC0EA3
:10258000FD1ECE010196B7010E948D158E010F5ED2
:102590001F4FCE010596B8010E948D1589858230A6
:1025A00040F08989823028F0C701B8010E940516E1
:1025B00001C08FEF6896E6E00C94E216A8E1B0E067
:1025C000E4EEF2E10C94C61669837A838B839C83D4
:1025D0002D833E834F83588789E0E82EF12CEC0E43
:1025E000FD1ECE010196B7010E948D158E010F5E72
:1025F0001F4FCE010596B8010E948D158985823046
:1026000040F08989823028F0C701B8010E94051680
:1026100001C08FEF6896E6E00C94E216A8E1B0E006
:10262000E4E1F3E10C94C61669837A838B839C837F
:102630002D833E834F83588789E0E82EF12CEC0EE2
:10264000FD1ECE010196B7010E948D158E010F5E11
:102650001F4FCE010596B8010E948D1589858230E5
:1026600040F08989823028F0C701B8010E94051620
:1026700001C081E06896E6E00C94E216A8E0B0E0C4
:10268000E4E4F3E10C94C3169B01AC0183E089837D
:10269000DA01C9018827B7FD83959927AA27BB27A7
:1026A000B82E211531054105510519F482E08983C1
:1026B0003AC08823A9F0203080E0380780E048073E
:1026C00080E8580729F460E070E080E09FEC30C0BB
:1026D000EE24FF248701E21AF30A040B150B02C053
:1026E00079018A018EE1C82ED12CDC82CB82ED8269
:1026F000FE820F831887C801B7010E9469140197F1
:102700001816190684F4082E04C0EE0CFF1C001FD6
:10271000111F0A94D2F7ED82FE820F831887C81A20
:10272000D90ADC82CB82BA82CE0101960E94B8140B
:102730002896E9E00C94DF16ACE0B0E0E2EAF3E1C1
:102740000C94CA1669837A838B839C83CE0101968D
:10275000BE016B5F7F4F0E948D158D81823061F1CC
:10276000823050F1843021F48E81882351F12EC0C3
:102770002F81388537FD20C06E812F3131051CF047
:102780006623F9F023C08EE190E0821B930B29852C
:102790003A854B855C8504C05695479537952795B6
:1027A0008A95D2F76623B1F05095409530952195E2
:1027B0003F4F4F4F5F4F0EC020E030E040E050E011
:1027C00009C02FEF3FEF4FEF5FE704C020E030E09C
:1027D00040E050E8B901CA012C96E2E00C94E616FC
:1027E000A8E0B0E0E6EFF3E10C94C2167B018C01A7
:1027F000611571058105910519F482E0898360C036
:1028000083E089838EE1C82ED12CDC82CB82ED82DD
:10281000FE820F831887C801B7010E946914FC016A
:102820003197F7FF3BC0222733272E1B3F0B570161
:102830006801022E04C0D694C794B794A7940A9452
:10284000D2F740E050E060E070E081E090E0A0E08E
:10285000B0E004C0880F991FAA1FBB1F2A95D2F7AA
:102860000197A109B1098E219F21A023B1230097CF
:10287000A105B10521F041E050E060E070E04A2997
:102880005B296C297D294D835E836F8378878EE178
:1028900090E08E1B9F0B9C838B8312C0309781F03E
:1028A0000E2E04C0EE0CFF1C001F111F0A94D2F75D
:1028B000ED82FE820F831887CE1ADF0ADC82CB827C
:1028C0001A82CE0101960E94B8142896EAE00C9470
:1028D000DE16EF92FF920F931F937B018C0180E035
:1028E000E81680E0F80681E0080780E0180788F421
:1028F0008FEFE816F1040105110531F028F088E0AA
:1029000090E0A0E0B0E017C080E090E0A0E0B0E090
:1029100012C080E0E81680E0F80680E0080781E059
:10292000180728F088E190E0A0E0B0E004C080E162
:1029300090E0A0E0B0E020E230E040E050E0281B72
:10294000390B4A0B5B0B04C016950795F794E79477
:102950008A95D2F7F701E352FE4F8081281B310997
:1029600041095109C9011F910F91FF90EF900895FE
:10297000DF92EF92FF920F931F93FC01E480F580AA
:1029800006811781D1808081823048F480E090E018
:10299000A0E1B0E0E82AF92A0A2B1B2BA5C084305D
:1029A00009F49FC0823021F4EE24FF24870105C082
:1029B000E114F1040105110519F4E0E0F0E096C01E
:1029C000628173819FEF623879070CF05BC022E867
:1029D0003FEF261B370B2A3131052CF020E030E089
:1029E00040E050E02AC0B801A701022E04C076954D
:1029F0006795579547950A94D2F781E090E0A0E05B
:102A0000B0E004C0880F991FAA1FBB1F2A95D2F7F8
:102A10000197A109B1098E219F21A023B12300971D
:102A2000A105B10521F081E090E0A0E0B0E09A01BD
:102A3000AB01282B392B4A2B5B2BDA01C9018F778D
:102A40009070A070B07080349105A105B10539F483
:102A500027FF09C0205C3F4F4F4F5F4F04C0215CF0
:102A60003F4F4F4F5F4FE0E0F0E02030A0E03A07EB
:102A7000A0E04A07A0E45A0710F0E1E0F0E0790195
:102A80008A0127C06038710564F5FB01E158FF4FEA
:102A9000D801C7018F779070A070B0708034910515
:102AA000A105B10539F4E7FE0DC080E490E0A0E097
:102AB000B0E004C08FE390E0A0E0B0E0E80EF91EC3
:102AC0000A1F1B1F17FF05C016950795F794E7947B
:102AD000319687E016950795F794E7948A95D1F794
:102AE00005C0EE24FF248701EFEFF0E06E2F67951D
:102AF00066276795902F9F77D794DD24D7948E2FE4
:102B00008695492F462B582F5D29B701CA011F9181
:102B10000F91FF90EF90DF900895FC01DB01408161
:102B200051812281622F6F7770E0221F2227221F9E
:102B30009381892F880F822B282F30E0991F9927A6
:102B4000991F11969C93119721153105A9F54115EF
:102B500051056105710511F482E037C082E89FEFED
:102B600013969C938E9312979A01AB0167E0220F04
:102B7000331F441F551F6A95D1F783E08C930DC016
:102B8000220F331F441F551F12968D919C9113974E
:102B9000019713969C938E931297203080E038070C
:102BA00080E0480780E4580758F314962D933D932E
:102BB0004D935C93179708952F3F310579F4411594
:102BC00051056105710519F484E08C93089564FF43
:102BD00003C081E08C9312C01C9210C02F5730406C
:102BE00013963C932E93129783E08C9387E0440FC7
:102BF000551F661F771F8A95D1F7706414964D9301
:102C00005D936D937C93179708951F93DC01FB01EF
:102C10009C91923008F447C08081823008F443C010
:102C2000943051F411961C91843099F58181682F6C
:102C300070E0611B71093FC0843021F0923031F4A3
:102C40008230B9F18181882389F12DC011961C91C0
:102C500011978230F1F081811817D9F412962D91D5
:102C60003C911397828193818217930794F02817E0
:102C70003907BCF014968D919D910D90BC91A02DBB
:102C80002481358146815781281739074A075B0718
:102C900018F4112341F00AC082179307A407B5075F
:102CA00040F4112319F061E070E005C06FEF7FEF91
:102CB00002C060E070E0CB011F910895629FD001D7
:102CC000739FF001829FE00DF11D649FE00DF11DE7
:102CD000929FF00D839FF00D749FF00D659FF00D96
:102CE0009927729FB00DE11DF91F639FB00DE11D83
:102CF000F91FBD01CF011124089597FB092E052668
:102D00000ED057FD04D014D00AD0001C38F45095D2
:102D10004095309521953F4F4F4F5F4F0895F6F7FF
:102D200090958095709561957F4F8F4F9F4F089537
:102D3000A1E21A2EAA1BBB1BFD010DC0AA1FBB1FBF
:102D4000EE1FFF1FA217B307E407F50720F0A21B31
:102D5000B30BE40BF50B661F771F881F991F1A949E
:102D600069F760957095809590959B01AC01BD01C8
:102D7000CF0108952F923F924F925F926F927F9270
:102D80008F929F92AF92BF92CF92DF92EF92FF927B
:102D90000F931F93CF93DF93CDB7DEB7CA1BDB0B27
:102DA0000FB6F894DEBF0FBECDBF09942A883988CC
:102DB00048885F846E847D848C849B84AA84B984D3
:102DC000C884DF80EE80FD800C811B81AA81B981DF
:102DD000CE0FD11D0FB6F894DEBF0FBECDBFED01F3
:102DE0000895AEE0B0E0E7EFF6E10C94C8160D8967
:102DF0001E898F89988D97FF02C080E090E8019727
:102E00009E838D831A83098386E08C839E01255ED1
:102E10003F4FCE010196698D7A8DA9010E9422173C
:102E20004D815E8157FD0AC02F81388542175307B7
:102E30000CF49A01020F131FF80110822E96E4E0A1
:102E40000C94E416ABE0B0E0E8E2F7E10C94BA16BB
:102E50003C012B015A01FC0117821682838181FDFE
:102E600003C06FEF7FEFC6C19AE0892E1E01089460
:102E7000211C311CF3012381F20123FD859123FFE5
:102E800081912F01882309F4B2C1853239F423FDE1
:102E9000859123FF81912F01853229F490E0B301C0
:102EA0000E941519E7CF982FFF24EE249924FFE103
:102EB000FF15D0F09B3269F09C3228F4903259F023
:102EC000933291F40EC09D3249F0903369F441E0A1
:102ED00024C052E0F52A84E0F82A28C098E0F92AB4
:102EE00025C0E0E1FE2A22C0F7FC29C0892F8053CB
:102EF0008A3070F4F6FE05C0989C902C1124980E30
:102F000015C0E89CE02C1124E80EF0E2FF2A0EC068
:102F10009E3229F4F6FC6BC140E4F42A07C09C36CB
:102F200019F450E8F52A02C0983649F4F20123FD5D
:102F3000959123FF91912F01992309F0B8CF892F03
:102F40008554833018F08052833038F444E050E0E8
:102F5000A40EB51E5FE359830FC0933631F093374B
:102F600079F0933509F056C020C0F501808189833E
:102F700042E050E0A40EB51E610101E010E012C075
:102F8000F501C080D180F6FC03C06FEF7FEF02C077
:102F9000692D70E042E050E0A40EB51EC6010E940B
:102FA0000A198C015FE7F52214C0F501C080D180B9
:102FB000F6FC03C06FEF7FEF02C0692D70E042E0C6
:102FC00050E0A40EB51EC6010E94FF188C0150E807
:102FD000F52AF3FE07C01AC080E290E0B3010E9418
:102FE0001519EA948E2D90E008171907A8F30EC062
:102FF000F601F7FC8591F7FE81916F0190E0B30136
:103000000E941519E110EA940150104001151105B4
:1030100079F7EAC0943611F0993669F5F7FE08C0E1
:10302000F501208131814281538184E090E00AC022
:10303000F501808191819C01442737FD4095542FF3
:1030400082E090E0A80EB91E9FE6F92257FF09C062
:1030500050954095309521953F4F4F4F5F4FE0E899
:10306000FE2ACA01B901A1012AE030E00E944119FB
:10307000D82ED21840C0953729F41F2D1F7E2AE084
:1030800030E01DC01F2D197F9F3661F0903720F46E
:10309000983509F0ACC00FC0903739F0983709F077
:1030A000A6C004C028E030E00AC0106114FD14601E
:1030B00020E130E004C014FD166020E132E017FF8B
:1030C00008C0F501608171818281938144E050E004
:1030D00008C0F50180819181BC0180E090E042E070
:1030E00050E0A40EB51EA1010E944119D82ED2189D
:1030F0008FE7F82EF122F6FE0BC05EEFF522D91411
:1031000038F4F4FE07C0F2FC05C08FEEF82202C0CE
:103110001D2D01C0192DF4FE0DC0FE01ED0DF11D98
:103120008081803319F499EEF92208C01F5FF2FE06
:1031300005C003C08F2D867809F01F5F0F2DF3FCAB
:1031400014C0F0FE0FC01E1510F09D2C0BC09D2C5E
:103150009E0C911A1E2D06C080E290E0B3010E94E1
:1031600015191F5F1E15C0F304C01E1510F4E11AD7
:1031700001C0EE2404FF0FC080E390E0B3010E9481
:10318000151902FF1DC001FD03C088E790E00EC0C5
:1031900088E590E00BC0802F867891F001FF02C097
:1031A0008BE201C080E2F7FC8DE290E0B3010E9467
:1031B000151906C080E390E0B3010E9415199A9496
:1031C000D914C0F3DA94F101ED0DF11D808190E086
:1031D000B3010E941519DD20A9F706C080E290E036
:1031E000B3010E941519EA94EE20C1F743CEF30112
:1031F00066817781CB012B96E2E10C94D616FC0117
:103200000590615070400110D8F7809590958E0F11
:103210009F1F0895FC016150704001900110D8F784
:10322000809590958E0F9F1F08950F931F93CF93B6
:10323000DF938C01EB018B8181FF1BC082FF0DC0EE
:103240002E813F818C819D812817390764F4E881A4
:10325000F9810193F983E88306C0E885F985802F19
:103260000995892B31F48E819F8101969F838E83EE
:1032700002C00FEF1FEFC801DF91CF911F910F9197
:103280000895FA01AA27283051F1203181F1E894FC
:103290006F936E7F6E5F7F4F8F4F9F4FAF4FB1E049
:1032A0003ED0B4E03CD0670F781F891F9A1FA11D44
:1032B000680F791F8A1F911DA11D6A0F711D811D45
:1032C000911DA11D20D009F468943F912AE0269F0A
:1032D00011243019305D3193DEF6CF010895462F69
:1032E0004770405D4193B3E00FD0C9F7F6CF462F4A
:1032F0004F70405D4A3318F0495D31FD40524193B3
:1033000002D0A9F7EACFB4E0A6959795879577956F
:103310006795BA95C9F700976105710508959B01F6
:10332000AC010A2E06945795479537952795BA957F
:10333000C9F7620F731F841F951FA01D0895F8948D
:02334000FFCFBD
:10334200434F324572726F72476574534E3A256924
:1033520000534E3A202530347825303478253034E5
:10336200782000434F3220496E697469616C697A32
:10337200696E6700434F324572723A5374617274D8
:103382004D65617300434F32457272446174614608
:103392006C6167256900434F324572725265616400
:1033A2003A2530346920202000434F322052656193
:1033B2006420496E76616C696400536B6970706950
:1033C2006E672E2E2E00434F323A20253034752060
:1033D2002530326C642E2530316C642043005465F4
:1033E2006D703A202530326C642E2530316C6420A9
:1033F200460054656D70657261747572653A202578
:10340200662A430A00436170636169746976653AAA
:103412002025690A000000000000000000000102EF
:10342200020303030304040404040404040505055D
:103432000505050505050505050505050506060637
:10344200060606060606060606060606060606061A
:103452000606060606060606060606060607070707
:1034620007070707070707070707070707070707EA
:1034720007070707070707070707070707070707DA
:1034820007070707070707070707070707070707CA
:1034920007070707070707070707070707080808B7
:1034A200080808080808080808080808080808089A
:1034B200080808080808080808080808080808088A
:1034C200080808080808080808080808080808087A
:1034D200080808080808080808080808080808086A
:1034E200080808080808080808080808080808085A
:1034F200080808080808080808080808080808084A
:103502000808080808080808080808080808080839
:0E351200080808080808080808080808080043
:00000001FF
