:100000000C944D000C9462000C9462000C946200FD
:100010000C9462000C9462000C9462000C946200D8
:100020000C9462000C9462000C9462000C946200C8
:100030000C9462000C9462000C9462000C946200B8
:100040000C9462000C9462000C9462000C946200A8
:100050000C9462000C9462000C9462000C94620098
:100060000C9462000C9462003E3E205553432045A0
:10007000453435394C203C3C373839303132333413
:10008000003E3E2061743332382D352E632068697E
:10009000203C3C3930313233340011241FBECFEFC5
:1000A000D8E0DEBFCDBF11E0A0E0B1E0E2EFF1E0CB
:1000B00002C005900D92AC30B107D9F70E94E7005D
:1000C0000C94F7000C9400009BB19F709BB99BB1FE
:1000D000807F892B8BB92A982A9A2A9A2A98089580
:1000E000CF93C82F0E9464008C2F8295807FCF9180
:1000F0000C9464002C980E94700086E69EE00197A4
:10010000F1F7000008958295880F880F807C860F94
:1001100080680C947A002C9A0E94700086E69EE01B
:100120000197F1F700000895CF93DF93EC01FE01F2
:1001300084912196811103C0DF91CF9108950E948F
:100140008B00F5CFCF93DF93EC018991811103C030
:10015000DF91CF9108950E948B00F7CF8AB1806F15
:100160008AB984B1846184B92C988FEF9BE601979A
:10017000F1F700C0000080E30E9464008FEF93E27B
:100180000197F1F700C0000080E30E9464008DED4C
:1001900090E00197F1F780E30E94640086E69EE01C
:1001A0000197F1F7000080E20E94640086E69EE07D
:1001B0000197F1F7000088E20E947A008FE00C942A
:1001C0007A0086E69EE00197F1F7000008950E940C
:1001D000AE0081E00E947A0060E080E00E9483002F
:1001E00080E091E00E94A2000E94E100FFCFF8941D
:0201F000FFCF3F
:0C01F20055434C41205355434B53000033
:00000001FF
