:100000000C944D000C9462000C9462000C946200FD
:100010000C9462000C9462000C9462000C946200D8
:100020000C9462000C9462000C9462000C946200C8
:100030000C9462000C9462000C9462000C946200B8
:100040000C9462000C9462000C9462000C946200A8
:100050000C9462000C9462000C9462000C94620098
:100060000C9462000C9462003E3E2061743332387E
:100070002D352E63206869203C3C393031323334D1
:10008000003E3E205553432045453435394C203CF5
:100090003C37383930313233340011241FBECFEFB2
:1000A000D8E0DEBFCDBF11E0A0E0B1E0EEE2F6E2C5
:1000B00002C005900D92A83BB107D9F70E94D50C5C
:1000C0000C9415130C9400000F931F93CF93DF93A0
:1000D000CDB7DEB766970FB6F894DEBF0FBECDBFC3
:1000E0000E945A0181E00E94490160E080E00E9484
:1000F000510180E091E00E942F012FEF8FE39BE000
:10010000215080409040E1F700C000008FE290E075
:100110000E94430BAE014F5E5F4FBE016D5E7F4F8D
:10012000CE0145960E940E048E010F5F1F4F00976F
:1001300009F44CC09F938F9381E191E09F938F933B
:100140001F9280E18F931F930F930E9430100FB680
:10015000F894DEBF0FBECDBF81E00E94490160E090
:1001600080E00E94510184E391E00E942F0160E051
:1001700081E00E945101C8010E942F019FEF2FE7EB
:1001800086E1915020408040E1F700C000000E94CD
:10019000A503892B41F060E080E00E9451018BE4CF
:1001A00091E00E942F0187B1837F87B988B1837F57
:1001B00088B9209A219A66960FB6F894DEBF0FBED2
:1001C000CDBFDF91CF911F910F9108958A898F93B1
:1001D00089898F938C898F938B898F938E898F9345
:1001E0008D898F9382E291E09F938F931F9280E19C
:1001F0008F931F930F930E943010A9CF329B02C0A0
:10020000882321F0339903C080E0089581E00895A8
:10021000289A089528980895299A08952998089564
:100220009BB19F709BB99BB1807F892B8BB92A981A
:100230002A9A2A9A2A9808951F93182F0E9410012B
:10024000812F8295807F0E9410011F9108952C9A22
:100250000E941C0186E69EE00197F1F70895CF9376
:10026000DF93EC0102C00E94270189918823D9F70E
:10027000DF91CF910895CF93DF93EC0102C00E94EC
:100280002701FE01219684918823C9F7DF91CF9140
:1002900008952C980E941C0186E69EE00197F1F7D4
:1002A00008958295880F880F807C860F80680E9451
:1002B000490108950F931F938AB1806F8AB984B161
:1002C000846184B92C9880E09CE60197F1F780E383
:1002D0000E94100180E094E20197F1F780E30E9410
:1002E00010018DED90E00197F1F780E30E9410017D
:1002F00006E61EE0C8010197F1F780E20E941001B6
:10030000C8010197F1F788E20E9449018FE00E943D
:1003100049011F910F91089586E69EE00197F1F73C
:100320000895CF92DF92EF92FF920F931F93A82F21
:100330004115510521F40115110509F4A8C084EAFD
:100340008093BC008091BC0087FFFCCF8091B900F6
:10035000887F883009F06BC08A2F8E7F8093BB0026
:1003600084E88093BC008091BC0087FFFCCF809123
:10037000B900887F8831D1F0803209F058C094E903
:100380009093BC0054C081918093BB006093BC00EB
:100390008091BC0087FFFCCF8091B900887F8832B4
:1003A00049F0803309F043C080E3E9CFFB01460FF9
:1003B000571F64E84E175F0731F7F901020F131F4B
:1003C00024E80EC081918093BB002093BC008091F3
:1003D000BC0087FFFCCF8091B900887F883209F785
:1003E0000E171F0779F720E1C114D10411F43BC0A7
:1003F00028E084EA8093BC008091BC0087FFFCCF9A
:100400008091B900887F281312C0A160A093BB001F
:1004100084E88093BC008091BC0087FFFCCF809172
:10042000B900887F803451F0883409F4A8CF1F9137
:100430000F91FF90EF90DF90CF900895F70194EC2B
:1004400081E0C816D10489F484E88093BC008091CF
:10045000BC0087FFFCCF8091B900887F883539F7D1
:100460008091BB00808380E08ACF9093BC00809114
:10047000BC0087FFFCCF8091B900887F21E0C21AC1
:10048000D1088035A1F68091BB008193D9CFC114EA
:10049000D10409F0ADCF80E0CACF1092B9008093AB
:1004A000B80008950F931F93DF93CF9300D0CDB77B
:1004B000DEB78E010F5F1F4FC80160E070E04CEAAD
:1004C00051E20E945909AC0185ECB8010E94390A39
:1004D0000F900F90CF91DF911F910F9108950F937F
:1004E0001F93DF93CF9300D0CDB7DEB78E010F5FA0
:1004F0001F4FC80160E070E046EF56E30E945909C3
:10050000AC0185ECB8010E94390A60E27EE480E02B
:1005100090E00E94930A80E090E00F900F90CF91BE
:10052000DF911F910F9108950F931F93DF93CF9346
:1005300000D0CDB7DEB78E010F5F1F4FC80160E05E
:1005400070E040EE56E30E945909AC0185ECB80119
:100550000E94390A8C01009731F468EE73E080E064
:1005600090E00E94930AC8010F900F90CF91DF9105
:100570001F910F9108950F931F93DF93CF9300D096
:10058000CDB7DEB78E010F5F1F4FC80160E070E08E
:1005900046E951E20E945909AC0185ECB8010E947C
:1005A000390A8C01009731F460E573EC80E090E04B
:1005B0000E94930AC8010F900F90CF91DF911F9175
:1005C0000F9108950F931F93DF93CF9300D0CDB772
:1005D000DEB78E010F5F1F4FC80160E070E04DE98C
:1005E00051E20E945909AC0185ECB8010E94390A18
:1005F0008C01009731F460E47BE48CE490E00E948D
:10060000930AC8010F900F90CF91DF911F910F9126
:1006100008950F931F93DF93CF9300D0CDB7DEB72C
:100620008E010F5F1F4FC80160E070E046E456E3A3
:100630000E945909AC0185ECB8010E94390A8C016D
:10064000009731F460E27EE480E090E00E94930A3B
:10065000C8010F900F90CF91DF911F910F910895D6
:100660000F931F93DF93CF9300D0CDB7DEB78E01EA
:100670000F5F1F4FC80160E070E042E356E30E9445
:100680005909AC0185ECB8010E94390A8C01009728
:1006900031F460E075E38CE090E00E94930AC801B9
:1006A0000F900F90CF91DF911F910F9108950F93AD
:1006B0001F93DF93CF9300D0CDB7DEB78E010F5FCE
:1006C0001F4FC80160E070E045E156E30E94590900
:1006D000AC0185ECB8010E94390A8C01009731F415
:1006E00060E075E38CE090E00E94930AC8010F90EF
:1006F0000F90CF91DF911F910F9108950F931F934A
:10070000DF93CF9300D0CDB7DEB78E010F5F1F4FC1
:10071000C80160E070E046E85FE30E945909AC015F
:1007200085ECB8010E94390A8C01009731F460E22F
:1007300071EA87E090E00E94930AC8010F900F9041
:10074000CF91DF911F910F9108950F931F93DF9326
:10075000CF9300D0CDB7DEB78E010F5F1F4FC8011A
:1007600060E070E041EB51E20E945909AC0185EC78
:10077000B8010E94390A8C01009731F468EE73E0E9
:1007800080E090E00E94930AC8010F900F90CF91F3
:10079000DF911F910F910895CF92DF92EF92FF9218
:1007A0000F931F93DF93CF9300D00F92CDB7DEB797
:1007B0006C017E010894E11CF11CC70160E070E04F
:1007C00049E356E30E945909AC0185ECB7010E9448
:1007D000390A8C010097A9F460E876E988E990E08D
:1007E0000E94930A85ECB70142E050E00E943F0A64
:1007F0008C01009731F4C7010E949C07F601918398
:100800008083C8010F900F900F90CF91DF911F91BF
:100810000F91FF90EF90DF90CF9008958F929F926D
:10082000AF92BF92CF92DF92EF92FF920F931F93FE
:10083000DF93CF93CDB7DEB729970FB6F894DEBF1D
:100840000FBECDBF6C015B014A017E010894E11C23
:10085000F11CC70160E070E042E856E30E945909CC
:10086000AC0185ECB7010E94390A8C01009719F59B
:1008700068EE73E080E090E00E94930A85ECB70197
:1008800046E050E00E943F0A8C010097A1F4C701A6
:100890000E949C07F60191838083CE0103960E94FB
:1008A0009C07F50191838083CE0105960E949C07E9
:1008B000F40191838083C80129960FB6F894DEBFB6
:1008C0000FBECDBFCF91DF911F910F91FF90EF90A1
:1008D000DF90CF90BF90AF909F908F900895CF9270
:1008E000DF92EF92FF920F931F93DF93CF9300D08D
:1008F0000F92CDB7DEB76C017E010894E11CF11CAC
:10090000C70160E070E048EB54EE0E945909AC0169
:1009100085ECB7010E94390A8C010097E1F468EE7A
:1009200073E080E090E00E94930A85ECB70142E01A
:1009300050E00E943F0A8C01009769F4C7010E94B1
:100940009C07F601118210829770892B21F081E0BB
:1009500090E091838083C8010F900F900F90CF910A
:10096000DF911F910F91FF90EF90DF90CF9008954E
:10097000CF92DF92EF92FF920F931F93DF93CF936B
:1009800000D00F92CDB7DEB76C017E010894E11C58
:10099000F11CC70160E070E043E153E20E94590995
:1009A000AC0185ECB7010E94390A8C010097A9F4CB
:1009B00068EE73E080E090E00E94930A85ECB70156
:1009C00042E050E00E943F0A8C01009731F4C701D9
:1009D0000E949C07F60191838083C8010F900F90BD
:1009E0000F90CF91DF911F910F91FF90EF90DF90CB
:1009F000CF900895CF92DF92EF92FF920F931F93C3
:100A0000DF93CF9300D00F92CDB7DEB76C017E019C
:100A10000894E11CF11CC70160E070E042E253E27F
:100A20000E945909AC0185ECB7010E94390A8C017A
:100A30000097A9F468EE73E080E090E00E94930ACA
:100A400085ECB70142E050E00E943F0A8C0100971C
:100A500031F4C7010E949C07F60191838083C8018D
:100A60000F900F900F90CF91DF911F910F91FF90FA
:100A7000EF90DF90CF900895CF92DF92EF92FF92A8
:100A80000F931F93DF93CF9300D00F92CDB7DEB7B4
:100A90006C017E010894E11CF11CC70160E070E06C
:100AA00048E153E20E945909AC0185ECB7010E946C
:100AB000390A8C010097A9F468EE73E080E090E0B9
:100AC0000E94930A85ECB70142E050E00E943F0A81
:100AD0008C01009731F4C7010E949C07F6019183B5
:100AE0008083C8010F900F900F90CF91DF911F91DD
:100AF0000F91FF90EF90DF90CF900895EF92FF92CB
:100B00000F931F93DF93CF9300D0CDB7DEB77C0157
:100B1000CE0101960E943C058C010097B1F46981D9
:100B20007A8180E090E023E735E540E050E00E94E4
:100B3000F40D2DE095958795779567952A95D1F7D2
:100B4000F7016083718382839383C8010F900F90B4
:100B5000CF91DF911F910F91FF90EF9008958F92A9
:100B60009F92AF92BF92CF92DF92EF92FF920F933C
:100B70001F93DF93CF93CDB7DEB729970FB6F894C5
:100B8000DEBF0FBECDBF6C015B014A017E01089440
:100B9000E11CF11CC70160E070E045E05CEE0E94E2
:100BA0005909AC0185ECB7010E94390A8C01009704
:100BB00019F568EE73E080E090E00E94930A85ECFE
:100BC000B70146E050E00E943F0A8C010097A1F473
:100BD000C7010E949C07F60191838083CE01039692
:100BE0000E949C07F50191838083CE0105960E94A7
:100BF0009C07F40191838083C80129960FB6F8946D
:100C0000DEBF0FBECDBFCF91DF911F910F91FF903F
:100C1000EF90DF90CF90BF90AF909F908F9008950E
:100C2000CF92DF92EF92FF920F931F93DF93CF93B8
:100C300000D000D0CDB7DEB77B016A01BE016F5F87
:100C40007F4FAE014D5F5F4F0E94AF058C01009753
:100C500081F569817A8180E090E023E735E540E025
:100C600050E00E94F40D4DE0959587957795679536
:100C70004A95D1F7685C7F4A80409040F7016083D5
:100C80007183828393836B817C8180E090E024ED8B
:100C900030E340E050E00E94F40D3DE095958795EB
:100CA000779567953A95D1F7F601608371838283D2
:100CB0009383C8010F900F900F900F90CF91DF9109
:100CC0001F910F91FF90EF90DF90CF900895EF92DA
:100CD000FF920F931F93DF93CF9300D000D00F921A
:100CE000CDB7DEB77C018E010F5F1F4FC80160E0FA
:100CF00070E046E154E20E945909BC01C801A70115
:100D00000E94A309AC0185ECB8010E94390A8C014C
:100D1000009731F468EE73E080E090E00E94930A5F
:100D2000C8010F900F900F900F900F90CF91DF910F
:100D30001F910F91FF90EF900895CF92DF92EF9265
:100D4000FF920F931F93DF93CF9300D000D00F92A9
:100D5000CDB7DEB78C016B017E010894E11CF11C5C
:100D6000C70160E070E04FE256E30E945909BC0100
:100D7000C701A8010E94A309AC0185ECB7010E943C
:100D8000390A8C010097A9F460E87AE186E090E0E6
:100D90000E94930A85ECB70142E050E00E943F0AAE
:100DA0008C01009731F4C7010E949C07F6019183E2
:100DB0008083C8010F900F900F900F900F90CF91EC
:100DC000DF911F910F91FF90EF90DF90CF900895EA
:100DD000EF92FF920F931F93DF93CF9300D000D039
:100DE0000F92CDB7DEB77C018E010F5F1F4FC80198
:100DF00060E070E040E050EE0E945909BC01C8017B
:100E0000A7010E94A309AC0185ECB8010E94390A30
:100E10008C01009731F468EE73E080E090E00E946E
:100E2000930AC8010F900F900F900F900F90CF91E1
:100E3000DF911F910F91FF90EF900895EF92FF9235
:100E40000F931F93DF93CF9300D000D00F92CDB7B5
:100E5000DEB77C018E010F5F1F4FC80160E070E0BC
:100E600047E254E20E945909BC01C801A7010E944F
:100E7000A309AC0185ECB8010E94390A8C010097E6
:100E800031F468EE73E080E090E00E94930AC801BC
:100E90000F900F900F900F900F90CF91DF911F91B7
:100EA0000F91FF90EF900895EF92FF920F931F9391
:100EB000DF93CF9300D000D00F92CDB7DEB77C0187
:100EC0008E010F5F1F4FC80160E070E04DE154E2FA
:100ED0000E945909BC01C801A7010E94A309AC01E5
:100EE00085ECB8010E94390A8C01009731F468EE54
:100EF00073E080E090E00E94930AC8010F900F9089
:100F00000F900F900F90CF91DF911F910F91FF9055
:100F1000EF9008952FEE3FE240E050E00E94F40D84
:100F2000DC01CB015FE0B595A795979587955A951C
:100F3000D1F70E9454070895FC0180819181982780
:100F4000892798270895FC016081718182819381AE
:100F50000E94230E0895FC018081918198278927A2
:100F6000982708950C94A3070E94A3070895FA01F7
:100F700090838183728363830895FB0190838183CF
:100F80000895FA0190838183728363830895FB013E
:100F90009083818308950C94B707FB01480F591F74
:100FA0008417950709F40895DC012D91CD01219353
:100FB000F7CFFC01680F791F8FEF21E3E617F707E2
:100FC00009F408959191892798E087FF05C0880F5B
:100FD00082279150D1F7F2CF880FFBCFCF93C42F48
:100FE0000E94D90791E08C1301C090E0892FCF9126
:100FF0000895CF93DF931F92CDB7DEB786E0898344
:1010000041E050E0BE016F5F7F4F80E00E94100B17
:10101000082E000C990B0F90DF91CF910895EF925D
:10102000FF920F931F93CF93DF93EC01022F7883EE
:1010300069837A01229610E010130CC023E0129FFE
:10104000C00111240296DF91CF911F910F91FF9063
:10105000EF900895F7018181F2E0EF0EF11C888393
:10106000F70132978081898362E070E0CE010E94AF
:10107000D9078A831F5F2396DFCF8F929F92AF920B
:10108000BF92CF92DF92EF92FF920F931F93CF9375
:10109000DF93CDB7DEB7C054D1090FB6F894DEBFE9
:1010A0000FBECDBF8B015A01AA0CBB1CA40EB51EEE
:1010B000A5019E012F5F3F4F4901B9010E94290BF5
:1010C000C82E880FDD0878018401C114D10471F1A4
:1010D000C601C05CDF4F0FB6F894DEBF0FBECDBFB8
:1010E000DF91CF911F910F91FF90EF90DF90CF9004
:1010F000BF90AF909F908F900895F801428162E079
:1011000070E0C8010E94EE07082E000C990B0097B2
:10111000A1F4F8018081F7018083F8018181F70152
:1011200081830D5F1F4FF2E0EF0EF11CC80188199B
:1011300099098A159B0508F3CBCF6C01C9CF0F9392
:101140001F93CF93DF938B01EA010E943D08AC010E
:1011500090E04115510599F0CA01DF91CF911F919F
:101160000F910895220F331FF801E20FF31F208122
:101170003181322723273227318320839F5F292F14
:1011800030E02C173D0770F3E7CF1F93CF93DF9329
:1011900000D0CDB7DEB7182F20E050E040E0CE0100
:1011A00001960E940F0842E050E0BE016F5F7F4F42
:1011B000812F0E94100B082E000C990B0F900F909E
:1011C000DF91CF911F9108951F93CF93DF93CDB7F8
:1011D000DEB7A0970FB6F894DEBF0FBECDBF182FB5
:1011E000CE0101960E940F08AC01BE016F5F7F4FD8
:1011F000812F0E94100B082E000C990BA0960FB6A1
:10120000F894DEBF0FBECDBFDF91CF911F9108953F
:101210008F929F92AF92BF92DF92EF92FF920F93C5
:101220001F93CF93DF9300D0CDB7DEB7D82E4901FF
:101230005A0120E050E040E0CE0101960E940F08E4
:1012400042E050E0BE016F5F7F4F8D2D0E94100B7A
:10125000082E000C990B009771F481149104A104DD
:10126000B10421F0C501B4010E94930AA701B8019D
:101270008D2D0E949F080F900F90DF91CF911F91AD
:101280000F91FF90EF90DF90BF90AF909F908F9065
:101290000895EF92FF920F931F9379018A0120E046
:1012A00030E0A9010E9408091F910F91FF90EF9073
:1012B0000895FC01E60FF71F50834183CB0102968E
:1012C0000895AF92BF92CF92DF92EF92FF920F9369
:1012D0001F93CF93DF93EC018B01B22EA32E7C01E1
:1012E000E60EF71EF701508341836B01F2E0CF0E4B
:1012F000D11CC80ED91E62E070E0C7010E94D90758
:10130000F6018083C80103968C0F9D1FFC01A0820B
:10131000F701B48298012B5F3F4FC20FD31F62E0E9
:1013200070E00E94D9078883C8010696DF91CF91AB
:101330001F910F91FF90EF90DF90CF90BF90AF90F3
:1013400008950C9461090F931F93CF93DF938B0142
:10135000FC01E60FF71F50834183EB012296C80F73
:10136000D91F62E070E0CF010E94D9078883C801CD
:101370000396DF91CF911F910F9108950C94A309CB
:10138000AF92BF92CF92DF92EF92FF920F931F9393
:10139000CF93DF93EC018B01B22EA32E7C01E60EDE
:1013A000F71EF701508341836B01F2E0CF0ED11C91
:1013B000C80ED91E62E070E0C7010E94D907F6018D
:1013C0008083C80103968C0F9D1FFC01A082F7014A
:1013D000B48298012B5F3F4FC20FD31F62E070E0D1
:1013E0000E94D9078883C8010696DF91CF911F918B
:1013F0000F91FF90EF90DF90CF90BF90AF90089546
:10140000AF92BF92CF92DF92EF92FF920F931F9312
:10141000CF93DF9320FD2AC079016A015C01EC01C2
:10142000C60FD71F8A01CE018A199B0998012C1972
:101430003D092E153F0558F0DF91CF911F910F9177
:10144000FF90EF90DF90CF90BF90AF900895F8019C
:10145000808188838181898362E070E0CE010E946F
:10146000D9078A830E5F1F4F2396DDCF84E090E07B
:10147000E3CF0E94100B082E000C990B0895AF9239
:10148000BF92CF92DF92EF92FF920F931F93CF9371
:10149000DF9304E010E040FD13C07B0156954795B3
:1014A0006A01CC0CDD1CC40ED51EA6010E94290BBE
:1014B000082F880F110B5701E7010115110501F1E4
:1014C000C801DF91CF911F910F91FF90EF90DF90B6
:1014D000CF90BF90AF9008954A8162E070E0CE0156
:1014E0000E94EE07082E000C990B009781F488816A
:1014F000F5018083898181832396F2E0AF0EB11CD0
:10150000CE018E199F098C159D0530F3D9CF8C0122
:10151000D7CF8FE190E008951092B9008DE18093CC
:10152000B80008950895AF92BF92CF92DF92EF92E4
:10153000FF920F931F930E940C0F5B016C0122E539
:1015400039E44DE150E40E94C30F7B018C0120E09F
:1015500030E040E85FE30E94660E882314F461E007
:1015600054C0C801B70120E030E04FE753E40E94C7
:10157000BE0F18160CF045C0C601B50120E030E0E2
:101580004AE754E40E946B0E5B016C0126E636E6E6
:1015900046EE54E40E94C30F7B018C0120E030E052
:1015A00040E85FE30E94660E88231CF461E070E06F
:1015B00024C0C801B70120E03FEF4FE757E40E9485
:1015C000BE0F1816B4F4C601B50120E030E040E2C9
:1015D00051E40E94C30F0E94DD0E88EB90E005C02D
:1015E000FC013197F1F76150704061157105C1F749
:1015F0000EC0C801B7010E94DD0ECB010197F1F7C3
:1016000006C0C801B7010E94DD0E6A95F1F71F916F
:101610000F91FF90EF90DF90CF90BF90AF90089523
:10162000CF92DF92EF92FF920F931F939B018A015B
:1016300060E070E040E050E0EE24FF24CC24DD24A4
:101640000E9491011F910F91FF90EF90DF90CF903A
:101650000895CF92DF92EF92FF920F931F937B0139
:101660006A01815060E070E040E050E020E030E04E
:1016700000E010E00E9491011F910F91FF90EF9008
:10168000DF90CF9008959093C5008093C400E1EC63
:10169000F0E080818860808380818061808386E043
:1016A0008093C2000895982F8091C00085FFFCCFE1
:1016B0009093C6000895AC0120E030E00CC0FA0120
:1016C000E20FF31FE0818091C00085FFFCCFE09323
:1016D000C6002F5F3F4F261737078CF30895681712
:1016E00079070CF4CB0108950895AF92BF92CF9281
:1016F000DF92EF92FF920F931F93CF93DF936C01D2
:101700007B01B42EA52ED0E0C0E0CE15DF0568F039
:1017100081E090E0DF91CF911F910F91FF90EF90CA
:10172000DF90CF90BF90AF90089587010C1B1D0BE9
:10173000013084E0180710F000E014E0C701801BBE
:10174000910B40E050E0C817D90710F04B2D5A2DEF
:10175000B801C6018C0F9D1F0E94750B0097D1F236
:10176000C00FD11FD2CF2F923F924F925F926F92B4
:101770007F928F929F92AF92BF92CF92DF92EF9221
:10178000FF920F931F93CF93DF93CDB7DEB7C45073
:10179000D1400FB6F894DEBF0FBECDBF2A01222E76
:1017A000C050DF4F8883C050D140CF5FDE4F688389
:1017B000C150D140312C30E0CD5FDE4F39832883DA
:1017C000C350D140CE0101964C01321418F081E093
:1017D00090E071C0632C712CCD5FDE4FA880B98082
:1017E000C350D140A618B70891E2A916B1041CF065
:1017F00080E2A82EB12CCE5FDE4FA882C250D1402D
:10180000D12CC12CF12CE12C02E010E09E0133958B
:1018100050E040E070E060E08CE60E949101882397
:1018200009F447C06501DD24DF92CF9224E931E05D
:101830003F932F931F929FEF9F939F928F920E94AF
:101840003010BC01C4010E945B0B7201E60CF71C56
:1018500010E000E030E020E050E040E070E060E0C8
:101860008CE60E9491010FB6F894DEBF0FBECDBF8B
:101870008823F9F0CE5FDE4F3881C250D140330E5D
:101880001F922F921F923F9286EA91E09F938F932F
:101890001F923FEF3F939F928F920E943010BC01A6
:1018A000C4010E945B0B0FB6F894DEBF0FBECDBF24
:1018B0008CCF90E080E0CC5FDE4F0FB6F894DEBFB7
:1018C0000FBECDBFDF91CF911F910F91FF90EF9091
:1018D000DF90CF90BF90AF909F908F907F906F9050
:1018E0005F904F903F902F9008950F931F93CF9349
:1018F000DF9300D000D0CDB7DEB708EE13E024E0D0
:10190000AE014F5F5F4F64E080E00E94B30B6981DE
:101910007A818B819C810E94230E0E940E0F20E011
:1019200030E040E857E30E94C30F0F900F900F90F4
:101930000F90DF91CF911F910F910895DF92EF9259
:10194000FF920F931F93CF93DF9300D0CDB7DEB7F5
:1019500098EBE92E9BE0F92E20E1D22ED80E8701DC
:1019600022E0AE014F5F5F4F6D2D8FE00E94B30B01
:10197000892B79F089819A819827892798270F9058
:101980000F90DF91CF911F910F91FF90EF90DF901B
:10199000089588E1E81A8CEFF80A80E4E8168FE1F0
:1019A000F806E9F68FEF9FEFEACFCF93DF93CDB73D
:1019B000DEB7CB51D1400FB6F894DEBF0FBECDBF1E
:1019C0000E946400C55EDE4F1882CB51D1400E9458
:1019D000750C80E00E949E0CD12CF12CE12CCE01E4
:1019E00001964C018E01139537E7232E31E0332EFB
:1019F00068E873E180E090E00E94930AC55EDE4FE4
:101A00001882CB51D140CE01855E9E4F0E946F045B
:101A10000097E9F09F938F938CE591E09F938F93CC
:101A20001F9281E18F931F930F930E94301081E0EA
:101A30000E94490160E080E00E945101C8010E94BB
:101A40002F010FB6F894DEBF0FBECDBFD1CFC55E5C
:101A5000DE4F8881CB51D140882309F487C0AE0185
:101A60004F5E5E4FBE016B5E7E4FCE01875E9E4F26
:101A70000E941006892B09F073C0C75EDE4FA88054
:101A8000B980C951D140A114B10409F469C0CB5E39
:101A9000DE4F288139814A815B81C551D140A9E05F
:101AA000B0E00E942A0E25E030E040E050E00E94C5
:101AB000040E29013A019DE7590E611C711CBF9269
:101AC000AF928DE691E09F938F931F9221E1B22E0A
:101AD000BF921F930F930E94301081E00E94490132
:101AE00060E080E00E945101C8010E942F01C30103
:101AF000B20128EE33E040E050E00E94040EA22E36
:101B0000732E642E552E24E630E040E050E00E9413
:101B1000040E5F934F933F932F935F926F927F9248
:101B2000AF923F922F921F92BF921F930F930E94EA
:101B3000301060E081E00E945101C8010E942F0135
:101B40006AE081E00E9451018FED0E94270160E16F
:101B500081E00E9451010FB6F894DEBF0FBECDBFE9
:101B600068E873E180E090E00E94930A0E94750C9F
:101B700080E00E949E0C9F938F938BE891E09F934F
:101B80008F931F928FEF8F939F928F920E943010AE
:101B9000BC01C4010E945B0B8D2D0E94FE00D82E5B
:101BA0000FB6F894DEBF0FBECDBFE114F104A9F06B
:101BB00092E0E916F10439F40E940C01DD2089F06D
:101BC0000E94080115CF24E0E216F104B9F70E9443
:101BD0000E0192E0E92EF12CF1CF84E0E82EF12CF9
:101BE000EDCF0E940A0104CFDB018F939F930E94E7
:101BF0002A0EBF91AF91A29F800D911DA39F900DC2
:101C0000B29F900D11240895052E97FB1EF40094A9
:101C10000E941B0E57FD07D00E94350E07FC03D013
:101C20004EF40C941B0E50954095309521953F4FE6
:101C30004F4F5F4F089590958095709561957F4FB8
:101C40008F4F9F4F08956927962769277827872701
:101C5000782708950E94570EA59F900DB49F900D70
:101C6000A49F800D911D11240895A1E21A2EAA1B94
:101C7000BB1BFD010DC0AA1FBB1FEE1FFF1FA2173C
:101C8000B307E407F50720F0A21BB30BE40BF50B39
:101C9000661F771F881F991F1A9469F760957095C2
:101CA000809590959B01AC01BD01CF010895A29F45
:101CB000B001B39FC001A39F700D811D1124911D20
:101CC000B29F700D811D1124911D08950E94490F2E
:101CD00008F481E008950E947F0E0C94840F0E9406
:101CE0007D0F58F00E94760F40F029F45F3F29F0F5
:101CF0000C946D0F51110C94B80F0C94730F0E943B
:101D0000950F68F39923B1F3552391F3951B550B68
:101D1000BB27AA2762177307840738F09F5F5F4FBE
:101D2000220F331F441FAA1FA9F335D00E2E3AF0FD
:101D3000E0E832D091505040E695001CCAF72BD015
:101D4000FE2F29D0660F771F881FBB1F2617370766
:101D50004807AB07B0E809F0BB0B802DBF01FF2798
:101D600093585F4F3AF09E3F510578F00C946D0FF9
:101D70000C94B80F5F3FE4F3983ED4F386957795C3
:101D80006795B795F7959F5FC9F7880F911D969551
:101D9000879597F90895E1E0660F771F881FBB1FAD
:101DA000621773078407BA0720F0621B730B840B5A
:101DB000BA0BEE1F88F7E09508950E949D0F88F0FA
:101DC0009F5798F0B92F9927B751B0F0E1F0660FFF
:101DD000771F881F991F1AF0BA95C9F714C0B13040
:101DE00091F00E94B70FB1E008950C94B70F672FE0
:101DF000782F8827B85F39F0B93FCCF3869577956F
:101E00006795B395D9F73EF4909580957095619557
:101E10007F4F8F4F9F4F0895E89409C097FB3EF482
:101E200090958095709561957F4F8F4F9F4F992327
:101E3000A9F0F92F96E9BB279395F69587957795A5
:101E40006795B795F111F8CFFAF4BB0F11F460FF65
:101E50001BC06F5F7F4F8F4F9F4F16C0882311F0BD
:101E600096E911C0772321F09EE8872F762F05C0D1
:101E7000662371F096E8862F70E060E02AF09A956C
:101E8000660F771F881FDAF7880F9695879597F961
:101E90000895990F0008550FAA0BE0E8FEEF1616FB
:101EA0001706E807F907C0F012161306E407F5074E
:101EB00098F0621B730B840B950B39F40A2661F0C2
:101EC000232B242B252B21F408950A2609F4A14065
:101ED000A6958FEF811D811D089597F99F6780E872
:101EE00070E060E008959FEF80EC089500240A946C
:101EF0001616170618060906089500240A941216E5
:101F00001306140605060895092E0394000C11F417
:101F1000882352F0BB0F40F4BF2B11F460FF04C0C4
:101F20006F5F7F4F8F4F9F4F089557FD9058440F1D
:101F3000551F59F05F3F71F04795880F97FB991F28
:101F400061F09F3F79F087950895121613061406E5
:101F5000551FF2CF4695F1DF08C016161706180672
:101F6000991FF1CF86957105610508940895E8944D
:101F7000BB2766277727CB0197F908950E94490F61
:101F800008F48FEF08950E94D60F0C94840F0E94DE
:101F9000760F38F00E947D0F20F0952311F00C94FD
:101FA0006D0F0C94730F11240C94B80F0E94950FB1
:101FB00070F3959FC1F3950F50E0551F629FF0019C
:101FC000729FBB27F00DB11D639FAA27F00DB11DB5
:101FD000AA1F649F6627B00DA11D661F829F22273E
:101FE000B00DA11D621F739FB00DA11D621F839FC5
:101FF000A00D611D221F749F3327A00D611D231F9B
:10200000849F600D211D822F762F6A2F11249F57E8
:1020100050409AF0F1F088234AF0EE0FFF1FBB1FEB
:10202000661F771F881F91505040A9F79E3F5105AA
:1020300080F00C946D0F0C94B80F5F3FE4F3983E62
:10204000D4F3869577956795B795F795E7959F5F54
:10205000C1F7FE2B880F911D9695879597F90895E6
:10206000AEE0B0E0E6E3F0E10C94EC120D891E89DD
:102070008F89988D26E02C831A83098397FF02C0ED
:1020800080E090E801979E838D83AE01455E5F4FAF
:10209000698D7A8DCE0101960E9460104D815E811E
:1020A00057FD0AC02F813885421753070CF49A0157
:1020B000020F131FF80110822E96E4E00C9408130F
:1020C000ABE0B0E0E6E6F0E10C94DE127C013B010F
:1020D0008A01FC0117821682838181FFC8C1CE016B
:1020E00001965C01F7019381F30193FD859193FFC4
:1020F00081913F01882309F453C1853239F493FD5E
:10210000859193FF81913F01853229F4B70190E0D9
:102110000E945012E7CF912C212C312CFFE1F315B6
:1021200038F08B3211F190F4803209F1833229F1C9
:1021300037FC3CC020ED280F2A3050F536FE20C079
:102140008AE0989E200D1124922E06C08D3291F0C7
:10215000803371F7689430F8F30193FD859193FF14
:1021600081913F018111DACF21C0689431F86894E0
:1021700032F8F2CF689433F8EFCF689434F8ECCFAC
:10218000EAE02E9E200D1124222E689435F8E4CF2B
:102190008E3229F436FC04C1689436F8DDCF8C36D3
:1021A00019F4689437F8D8CF8836B1F2982F9F7D0C
:1021B00095549330E0F08336A1F18337C1F1833534
:1021C00009F063C02801F2E04F0E511CF801C080F5
:1021D000D180692D70E036FC02C06FEF7FEFC60141
:1021E0000E943A124C01689437F882010AC00C5FD1
:1021F0001F4FFFE3F98388248394912C6501E894B1
:1022000037F833FE2DC0522C8114910471F55520FE
:1022100009F468CFB70180E290E00E9450125A940E
:10222000F6CFF801808189830E5F1F4FE4CF28012C
:10223000F2E04F0E511CF801C080D180692D70E092
:1022400036FC02C06FEF7FEFC6010E9445124C01C1
:102250008201D5CFB70180E290E00E9450122A940B
:102260002814190409F0B0F7CECFF60137FC859198
:1022700037FE81916F01B70190E00E94501251101A
:102280005A94F1E08F1A9108BFCF843619F089363D
:1022900009F077C0F80137FE6BC0608171818281DF
:1022A00093810C5F1F4FF32DFF763F2E97FF09C0E0
:1022B00090958095709561957F4F8F4F9F4F689453
:1022C00037F82AE030E0A5010E948012C82ECA1813
:1022D0008C2C432C36FE0CC0E89440F8C91440F412
:1022E00034FE05C032FC03C0F32DFE7E4F2E892C38
:1022F00044FE95C0FE01EC0DF11D8081803309F094
:1023000087C0242D297E422E842D8870582E43FCB0
:1023100095C040FE8FC09C2C821418F42C0C922C7B
:10232000981844FE91C0B70180E390E00E945012DB
:1023300042FE09C088E790E041FE02C088E590E0D7
:10234000B7010E945012C91408F48AC0CA94D12C53
:102350009FEFC91AD90ACA0CDB1CF60182916F01E2
:10236000B70190E00E945012AC14BD04B1F74FCFFA
:1023700060817181072E000C880B990B0E5F1F4F37
:1023800092CFD32CE894D4F82AE030E0853739F1A5
:10239000232D297FD22E8F3601F148F48835A9F0FC
:1023A000F701868197812B96E2E10C94FA1280372F
:1023B00049F08837A9F7D4FE02C06894D2F820E12A
:1023C00030E00DC06894D4F8F6CF34FE03C0822FFD
:1023D0008660D82E20E132E002C028E030E0F8012B
:1023E000D7FE0FC060817181828193810C5F1F4F86
:1023F000A5010E948012C82ECA183D2CE89437F817
:1024000067CF6081718190E080E00E5F1F4FF0CF59
:1024100042FC02C0839478CF8394839475CF842D3B
:10242000867809F471CFF6CFB70180E290E00E9480
:10243000501283948214C0F3512C73CF522C58182D
:10244000821408F46ECFF8CF842D867809F47BCF00
:102450008BE241FE80E247FC8DE2B70190E071CF54
:10246000B70180E390E00E9450129A946CCF8FEFF6
:102470009FEF99CFFC010590615070400110D8F793
:10248000809590958E0F9F1F0895FC0161507040BC
:1024900001900110D8F7809590958E0F9F1F089599
:1024A0000F931F93CF93DF93182F092FEB018B818D
:1024B00081FD09C01FEF0FEF812F902FDF91CF918A
:1024C0001F910F91089582FF14C02E813F818C814E
:1024D0009D81281739073CF4E881F981CF010196E5
:1024E0009983888310838E819F8101969F838E8339
:1024F000E3CFE885F985812F0995892BA1F3DACF00
:10250000FA01AA27283051F1203181F1E8946F9324
:102510006E7F6E5F7F4F8F4F9F4FAF4FB1E03ED0CA
:10252000B4E03CD0670F781F891F9A1FA11D680F68
:10253000791F8A1F911DA11D6A0F711D811D911D9B
:10254000A11D20D009F468943F912AE0269F112410
:102550003019305D3193DEF6CF010895462F477074
:10256000405D4193B3E00FD0C9F7F6CF462F4F70CF
:10257000405D4A3318F0495D31FD4052419302D02D
:10258000A9F7EACFB4E0A6959795879577956795D3
:10259000BA95C9F700976105710508959B01AC01D3
:1025A0000A2E06945795479537952795BA95C9F7FA
:1025B000620F731F841F951FA01D08952F923F92D5
:1025C0004F925F926F927F928F929F92AF92BF9243
:1025D000CF92DF92EF92FF920F931F93CF93DF93EF
:1025E000CDB7DEB7CA1BDB0B0FB6F894DEBF0FBE4C
:1025F000CDBF09942A88398848885F846E847D8499
:102600008C849B84AA84B984C884DF80EE80FD809A
:102610000C811B81AA81B981CE0FD11D0FB6F89410
:0E262000DEBF0FBECDBFED010895F894FFCFD1
:10262E00536D61727420477265656E686F75736560
:10263E0000434F324572726F72476574534E3A259E
:10264E006900534E3A2025303478253034782530C1
:10265E00347820004330322053656E736F722069D8
:10266E006E697469616C697A6564004330324572D3
:10267E00723A53746172744D65617300434F324503
:10268E00727244617461466C6167256900434F3212
:10269E003A20253034750054656D703A202530325D
:1026AE006C642E2530316C642046004361703A20F4
:1026BE0025690A0052656164696E6720257520429E
:1026CE00797465730A00506F733A20257520204E79
:0826DE00756D3A2025750A0014
:00000001FF
