:100000000C9434000C9449000C9449000C94490061
:100010000C9449000C9449000C9449000C9449003C
:100020000C9449000C9449000C9449000C9449002C
:100030000C9449000C9449000C9449000C9449001C
:100040000C9449000C9449000C9449000C9449000C
:100050000C9449000C9449000C9449000C944900FC
:100060000C9449000C94490011241FBECFEFD8E036
:10007000DEBFCDBF13E0A0E0B1E0E8EEFDE202C0DC
:1000800005900D92A636B107D9F70E947F000C9417
:10009000F2160C9400009093C5008093C400E1EC2C
:1000A000F0E080818860808380818061808386E049
:1000B0008093C2000895982F8091C00085FFFCCFE7
:1000C0009093C6000895EF92FF920F931F93CF93E2
:1000D000DF937C018B01C0E0D0E007C0F701EC0F9B
:1000E000FD1F80810E945B002196C017D107B4F3E9
:1000F000DF91CF911F910F91FF90EF9008952F9274
:100100003F924F925F926F927F928F929F92AF92A7
:10011000BF92CF92DF92FF920F931F93DF93CF9303
:10012000CDB7DEB7C951D1400FB6F894DEBF0FBED0
:10013000CDBF8FE290E00E944B0081E20E945B0005
:100140000E949D0B0E946D060E947C070E9407077B
:10015000CE010196BE016D5F7F4FAE014B5F5F4FD9
:100160000E940C089C01CE0143962115310521F116
:100170004DB75EB7485050400FB6F8945EBF0FBE03
:100180004DBFEDB7FEB73196ADB7BEB712969C9393
:100190008E9311978FEF90E09383828380E091E0BC
:1001A00095838483378326830E944414BC012DB732
:1001B0003EB7285F3F4F2DC04DB75EB74C50504003
:1001C0000FB6F8945EBF0FBE4DBFEDB7FEB73196C8
:1001D000ADB7BEB712969C938E9311978FEF90E0B8
:1001E000938382838FE291E09583848389819A81CE
:1001F000978386838B819C81918780878D819E8167
:10020000938782870E944414BC012DB73EB7245FB8
:100210003F4F0FB6F8943EBF0FBE2DBF8E010D5E4F
:100220001F4FC8010E9463000E94A3079C01009712
:1002300039F14DB75EB7485050400FB6F8945EBFE5
:100240000FBE4DBFEDB7FEB73196ADB7BEB7129634
:100250001C930E9311978FEF90E09383828387E432
:1002600091E095838483378326830E9444142DB7BD
:100270003EB7285F3F4F0FB6F8943EBF0FBE2DBF6D
:1002800000D000D000D0EDB7FEB731968E010D5EE4
:100290001F4FADB7BEB712961C930E9311978FEFF9
:1002A00090E0938382838FE791E0958384830E941B
:1002B0004414BC012DB73EB72A5F3F4F0FB6F894E8
:1002C0003EBF0FBE2DBFC8010E946300AE01495F53
:1002D0005F4FCE5EDE4F59834883C251D140F02E2E
:1002E000012F5FEFC52ED12CCE010996CC5EDE4FDB
:1002F00099838883C451D140DE011B96CA5EDE4FCC
:10030000B983A883C651D1409E01215F3F4FC85E8B
:10031000DE4F39832883C851D1404CE2242E42E07D
:10032000342E35E3432E32E0532E2BE4622E22E0AE
:10033000722E98E0892E92E0992E8AEDA82E81E007
:10034000B82E60EA76E881E090E00E94A40B18865F
:100350001F82CE5EDE4F88819981C251D1400E94BA
:100360006D08009741F14DB75EB7485050400FB649
:10037000F8945EBF0FBE4DBFEDB7FEB73196ADB777
:10038000BEB71196FC92119712960C93D382C2823B
:1003900029EA31E035832483978386830E944414BD
:1003A000BC014DB75EB7485F5F4F0FB6F8945EBFB4
:1003B0000FBE4DBFD8C08F819885892B11F2CC5EBE
:1003C000DE4F88819981C451D140CA5EDE4F688179
:1003D0007981C651D140C85EDE4F48815981C851EC
:1003E000D1400E940E0A0097F1F0ADB7BEB7189742
:1003F0000FB6F894BEBF0FBEADBFEDB7FEB73196D6
:100400001196FC92119712960C93D382C282B582F8
:10041000A482978386830E944414BC012DB73EB703
:10042000285F3F4F9BC089859A850097C9F400D00B
:1004300000D000D0EDB7FEB73196ADB7BEB711967C
:10044000FC92119712960C93D382C2829582848279
:100450000E944414BC012DB73EB72A5F3F4F7EC0B7
:100460004DB75EB7485050400FB6F8945EBF0FBE10
:100470004DBFEDB7FEB73196ADB7BEB71196FC9242
:10048000119712960C93D382C2823582248297836D
:1004900086830E944414BC012DB73EB7285F3F4FAE
:1004A0000FB6F8943EBF0FBE2DBF8F2D902F0E9428
:1004B00063004DB75EB74A5050400FB6F8945EBF28
:1004C0000FBE4DBFEDB7FEB73196ADB7BEB71196B3
:1004D000FC92119712960C93D382C2825582448269
:1004E0008B859C85AD85BE8586839783A087B187E4
:1004F0000E944414BC012DB73EB7265F3F4F0FB694
:10050000F8943EBF0FBE2DBF8F2D902F0E94630029
:100510004DB75EB74A5050400FB6F8945EBF0FBE5D
:100520004DBFEDB7FEB73196ADB7BEB71196FC9291
:10053000119712960C93D382C282758264828F8542
:100540009889A989BA8986839783A087B1870E94F1
:100550004414BC012DB73EB7265F3F4F0FB6F89449
:100560003EBF0FBE2DBF8F2D902F0E946300E9CE9E
:10057000FC01218130E0908180E0282B392BC901DA
:100580000895FC01238130E040E050E0808190E05C
:10059000A0E0B0E0B82FAA2799278827282B392B6D
:1005A0004A2B5B2B818190E0A0E0B0E0DC01992731
:1005B0008827282B392B4A2B5B2B828190E0A0E0E7
:1005C000B0E0BA2FA92F982F8827282B392B4A2B38
:1005D0005B2BB901CA0108950E94B80208950E94D8
:1005E000C10208950E94C1020895FA01292F3327FC
:1005F0004427552720839C01442755272183272FF3
:10060000382F492F5527228363830895FB01908358
:1006100081830895FA01292F552727FD5095352FFD
:10062000452F20839C01552737FD5095452F218369
:10063000272F382F492F552747FD5A95228363834B
:100640000895FB01292F332727FD3A9520838183C5
:1006500008950E94F5020895CF93DF93EC0120E006
:1006600030E00AC0FB01E20FF31FDE01A20FB31F4F
:100670008C9180832F5F3F4F2417350798F3DF91CC
:10068000CF910895DC0140E050E02FEF91E310C0DE
:10069000FD01E40FF51F8081282788E027FF03C0B4
:1006A000220F292701C0220F8150C1F74F5F5F4FF2
:1006B0004617570768F3822F08951F93142F0E943F
:1006C000420390E0811391E0892F1F910895EF92EA
:1006D000FF920F931F93CF93DF93FC01E22E708361
:1006E00061838A01EF012296FF240FC0F801818106
:1006F000888380818983CE0162E070E00E9442039A
:100700008A83F3940E5F1F4F2396FE1478F323E041
:10071000E29E900111242E5F3F4FC901DF91CF91DE
:100720001F910F91FF90EF900895DC01FC01E60FFF
:10073000F71F50836F5F7F4FA60FB71F4C936F5FFC
:100740007F4FCB010895AF92BF92CF92DF92EF928D
:10075000FF920F931F935C018B0169017A019C0149
:10076000260F371F8F2D9927AA27BB27F9018083D2
:100770000F5F1F4FF501E00FF11FE0820F5F1F4F6A
:10078000C90162E070E00E944203F501E00FF11F31
:1007900080830F5F1F4FD501A00FB11FDC920F5F49
:1007A0001F4FF501E00FF11FC0820F5F1F4FCD01FA
:1007B00062E070E00E944203A00EB11EF50180834A
:1007C0000F5F1F4FC8011F910F91FF90EF90DF90B7
:1007D000CF90BF90AF9008950E94A3030895EF9229
:1007E000FF920F931F937C018B01DC01A60FB71FB3
:1007F0005C930F5F1F4FFC01E00FF11F40830F5F01
:100800001F4FCD0162E070E00E944203E00EF11E36
:10081000F70180830F5F1F4FC8011F910F91FF9059
:10082000EF9008950E94EF030895AF92BF92CF9288
:10083000DF92EF92FF920F931F935C016B0179019E
:100840008A019C01260F371F812F9927AA27BB27D2
:10085000F90180830894C11CD11CF501EC0DFD1D2C
:1008600040830894C11CD11CC90162E070E00E9461
:100870004203F501EC0DFD1D80830894C11CD11CC1
:10088000D501AC0DBD1DFC920894C11CD11CF50115
:10089000EC0DFD1DE0820894C11CD11CCD0162E06D
:1008A00070E00E944203AC0CBD1CF50180830894EB
:1008B000C11CD11CC6011F910F91FF90EF90DF90DA
:1008C000CF90BF90AF900895AF92BF92CF92DF923A
:1008D000EF92FF920F931F93CF93DF93FC016B0175
:1008E000590120FF04C024E0C22ED12C20C08A016F
:1008F000EF01C60FD71FEE24FF2416C0F801808138
:10090000888381818983CE0162E070E00E94420386
:100910008A8383E090E0C80ED91EE2E0F0E0EE0E9C
:10092000FF1E0E5F1F4F2396EA14FB0438F3C60127
:10093000DF91CF911F910F91FF90EF90DF90CF90BB
:10094000BF90AF900895AF92BF92CF92DF92EF9297
:10095000FF920F931F93CF93DF93282F162F072F0C
:1009600040FF03C024E030E038C0CA019695879567
:100970006C01CC0CDD1CC80ED91E822FA6010E9472
:10098000070DA82EBB24A7FCB094A114B10421F537
:10099000812F902F9C01E9018901EE24FF2419C0C9
:1009A000CE0162E070E04A810E945D03282F332768
:1009B00027FD30952115310581F48881F801808368
:1009C0008981818383E090E0E80EF91E23960E5F13
:1009D0001F4FEC14FD0420F39501C901DF91CF9165
:1009E0001F910F91FF90EF90DF90CF90BF90AF904D
:1009F00008958F929F92AF92BF92CF92DF92EF9223
:100A0000FF920F931F93DF93CF93CDB7DEB7C05400
:100A1000D0400FB6F894DEBF0FBECDBFD62EC72E86
:100A20004A01880C991C840E951E8E010F5F1F4F82
:100A3000B801A4010E94070DA82EBB24A7FCB09406
:100A4000A114B10449F578018D2D9C2D9C018901DB
:100A5000CC24DD241EC0C70162E070E0F7014281B2
:100A60000E945D03992787FD9095009711F05C0126
:100A700013C0F7018081F8018083F7018181F801BB
:100A8000818383E090E0C80ED91EE80EF91E0E5F48
:100A90001F4FC814D904F8F2C501C05CDF4F0FB670
:100AA000F894DEBF0FBECDBFCF91DF911F910F91A4
:100AB000FF90EF90DF90CF90BF90AF909F908F907E
:100AC00008950F931F93CF93DF938B01EA010E9448
:100AD000F904AC010097A1F460E00DC0EE0FFF1F18
:100AE000E00FF11F818190E0308120E0822B932B79
:100AF000918380836F5FE62FF0E0EC17FD0770F3C2
:100B0000CA01DF91CF911F910F9108950E94EE0CC1
:100B1000282F332727FD3095C9010895FF920F93A1
:100B20001F93DF93CF93CDB7DEB7A0970FB6F8949E
:100B3000DEBF0FBECDBFF82E8E010F5F1F4FC80165
:100B40000E946703AC018F2DB8010E94EE0C282F84
:100B5000332727FD3095C901A0960FB6F894DEBF64
:100B60000FBECDBFCF91DF911F910F91FF900895E0
:100B7000FF920F931F93DF93CF9300D0CDB7DEB7D3
:100B8000F82E8E010F5F1F4FC80140E050E020E0BB
:100B90000E9467038F2DB80142E050E00E94EE0CE6
:100BA000282F332727FD3095C9010F900F90CF9143
:100BB000DF911F910F91FF900895DF93CF930F92D4
:100BC000CDB7DEB786E0898380E0BE016F5F7F4FDF
:100BD00041E050E00E94EE0C282F332727FD30958E
:100BE000C9010F90CF91DF9108957F928F929F92CC
:100BF000AF92BF92CF92DF92EF92FF920F931F932B
:100C0000DF93CF9300D0CDB7DEB7782E59016A01BC
:100C100048018E010F5F1F4FC80140E050E020E007
:100C20000E946703872DB80142E050E00E94EE0C5D
:100C3000282F332727FD30952115310579F4A1148C
:100C4000B104C104D10421F0C601B5010E94A40B76
:100C5000872DB401A7010E9461059C01C9010F9075
:100C60000F90CF91DF911F910F91FF90EF90DF9048
:100C7000CF90BF90AF909F908F907F900895EF920C
:100C8000FF920F931F938A01790120E030E040E04A
:100C900050E00E94F5051F910F91FF90EF9008958D
:100CA0000F931F93DF93CF9300D0CDB7DEB78E01A4
:100CB0000F5F1F4FC80160E070E04CEA51E20E94F4
:100CC0009503AC0182E6B8010E9486050F900F9053
:100CD000CF91DF911F910F9108950F931F93DF9391
:100CE000CF9300D0CDB7DEB78E010F5F1F4FC80185
:100CF00060E070E046EF56E30E949503AC0182E6A7
:100D0000B8010E94860560E27EE480E090E00E94E7
:100D1000A40B80E090E00F900F90CF91DF911F9196
:100D20000F9108950F931F93DF93CF9300D0CDB70A
:100D3000DEB78E010F5F1F4FC80160E070E040EE2C
:100D400056E30E949503AC0182E6B8010E94860535
:100D50008C01009731F468EE73E080E090E00E942F
:100D6000A40BC8010F900F90CF91DF911F910F91AD
:100D700008950F931F93DF93CF9300D0CDB7DEB7C5
:100D80008E010F5F1F4FC80160E070E046E951E23D
:100D90000E949503AC0182E6B8010E9486058C0191
:100DA000009731F460E573EC80E090E00E94A40BC2
:100DB000C8010F900F90CF91DF911F910F9108956F
:100DC0000F931F93DF93CF9300D0CDB7DEB78E0183
:100DD0000F5F1F4FC80160E070E04DE951E20E94D3
:100DE0009503AC0182E6B8010E9486058C0100974C
:100DF00031F460E47BE48CE490E00E94A40BC80131
:100E00000F900F90CF91DF911F910F9108950F9345
:100E10001F93DF93CF9300D0CDB7DEB78E010F5F66
:100E20001F4FC80160E070E046E456E30E9495035E
:100E3000AC0182E6B8010E9486058C01009731F46E
:100E400060E27EE480E090E00E94A40BC8010F9075
:100E50000F90CF91DF911F910F9108950F931F93E2
:100E6000DF93CF9300D0CDB7DEB78E010F5F1F4F5A
:100E7000C80160E070E042E356E30E949503AC01D4
:100E800082E6B8010E9486058C01009731F460E08B
:100E900075E38CE090E00E94A40BC8010F900F90C6
:100EA000CF91DF911F910F9108950F931F93DF93BF
:100EB000CF9300D0CDB7DEB78E010F5F1F4FC801B3
:100EC00060E070E045E156E30E949503AC0182E6E4
:100ED000B8010E9486058C01009731F460E075E34B
:100EE0008CE090E00E94A40BC8010F900F90CF916E
:100EF000DF911F910F9108950F931F93DF93CF936D
:100F000000D0CDB7DEB78E010F5F1F4FC80160E084
:100F100070E046E85FE30E949503AC0182E6B80109
:100F20000E9486058C01009731F460E271EA87E047
:100F300090E00E94A40BC8010F900F90CF91DF9119
:100F40001F910F9108950F931F93DF93CF9300D0BC
:100F5000CDB7DEB78E010F5F1F4FC80160E070E0B4
:100F600041EB51E20E949503AC0182E6B8010E9478
:100F700086058C01009731F468EE73E080E090E024
:100F80000E94A40BC8010F900F90CF91DF911F9189
:100F90000F910895CF92DF92EF92FF920F931F93DC
:100FA000DF93CF9300D00F92CDB7DEB76C017E01F7
:100FB0000894E11CF11CC70160E070E049E356E3CE
:100FC0000E949503AC0182E6B7010E9486058C0160
:100FD0000097A9F460E876E988E990E00E94A40B04
:100FE00082E6B70142E050E00E94A3048C01009722
:100FF00031F4C7010E94B802F60191838083C801D1
:101000000F900F900F90CF91DF911F910F91FF9054
:10101000EF90DF90CF9008958F929F92AF92BF9202
:10102000CF92DF92EF92FF920F931F93DF93CF93B4
:10103000CDB7DEB729970FB6F894DEBF0FBECDBF90
:101040006C015B014A017E010894E11CF11CC7019F
:1010500060E070E042E856E30E949503AC0182E64E
:10106000B7010E9486058C01009719F568EE73E0C0
:1010700080E090E00E94A40B82E6B70146E050E0D9
:101080000E94A3048C010097A1F4C7010E94B8023A
:10109000F60191838083CE0103960E94B802F50188
:1010A00091838083CE0105960E94B802F40191835A
:1010B0008083C80129960FB6F894DEBF0FBECDBF5E
:1010C000CF91DF911F910F91FF90EF90DF90CF9024
:1010D000BF90AF909F908F900895CF92DF92EF9244
:1010E000FF920F931F93DF93CF9300D00F92CDB752
:1010F000DEB76C017E010894E11CF11CC70160E0C1
:1011000070E048EB54EE0E949503AC0182E6B70113
:101110000E9486058C010097E1F468EE73E080E0A0
:1011200090E00E94A40B82E6B70142E050E00E94EA
:10113000A3048C01009769F4C7010E94B802F6016C
:10114000118210829770892B21F081E090E09183C9
:101150008083C8010F900F900F90CF91DF911F9166
:101160000F91FF90EF90DF90CF900895CF92DF9294
:10117000EF92FF920F931F93DF93CF9300D00F92C4
:10118000CDB7DEB76C017E010894E11CF11CC701EC
:1011900060E070E043E153E20E949503AC0182E617
:1011A000B7010E9486058C010097A9F468EE73E0F0
:1011B00080E090E00E94A40B82E6B70142E050E09C
:1011C0000E94A3048C01009731F4C7010E94B80269
:1011D000F60191838083C8010F900F900F90CF91FB
:1011E000DF911F910F91FF90EF90DF90CF900895C6
:1011F000CF92DF92EF92FF920F931F93DF93CF93E3
:1012000000D00F92CDB7DEB76C017E010894E11CCF
:10121000F11CC70160E070E042E253E20E949503D6
:10122000AC0182E6B7010E9486058C010097A9F403
:1012300068EE73E080E090E00E94A40B82E6B701C4
:1012400042E050E00E94A3048C01009731F4C701F2
:101250000E94B802F60191838083C8010F900F901D
:101260000F90CF91DF911F910F91FF90EF90DF9042
:10127000CF900895CF92DF92EF92FF920F931F933A
:10128000DF93CF9300D00F92CDB7DEB76C017E0114
:101290000894E11CF11CC70160E070E048E153E2F2
:1012A0000E949503AC0182E6B7010E9486058C017D
:1012B0000097A9F468EE73E080E090E00E94A40B30
:1012C00082E6B70142E050E00E94A3048C0100973F
:1012D00031F4C7010E94B802F60191838083C801EE
:1012E0000F900F900F90CF91DF911F910F91FF9072
:1012F000EF90DF90CF900895EF92FF920F931F939E
:10130000DF93CF9300D0CDB7DEB77C01CE0101963D
:101310000E943A098C010097B1F469817A8180E0DA
:1013200090E023E735E540E050E00E94EE132DE029
:1013300095958795779567952A95D1F7F7016083FD
:10134000718382839383C8010F900F90CF91DF91B7
:101350001F910F91FF90EF9008958F929F92AF92FF
:10136000BF92CF92DF92EF92FF920F931F93DF9382
:10137000CF93CDB7DEB729970FB6F894DEBF0FBE77
:10138000CDBF6C015B014A017E010894E11CF11C98
:10139000C70160E070E045E05CEE0E949503AC019F
:1013A00082E6B7010E9486058C01009719F568EE68
:1013B00073E080E090E00E94A40B82E6B70146E073
:1013C00050E00E94A3048C010097A1F4C7010E9481
:1013D000B802F60191838083CE0103960E94B80281
:1013E000F50191838083CE0105960E94B802F40135
:1013F00091838083C80129960FB6F894DEBF0FBE93
:10140000CDBFCF91DF911F910F91FF90EF90DF90B3
:10141000CF90BF90AF909F908F900895CF92DF9222
:10142000EF92FF920F931F93DF93CF9300D000D0E2
:10143000CDB7DEB77B016A01BE016F5F7F4FAE01A2
:101440004D5F5F4F0E94AD098C01009781F5698166
:101450007A8180E090E023E735E540E050E00E94AB
:10146000EE134DE095958795779567954A95D1F759
:10147000685C7F4A80409040F7016083718382837B
:1014800093836B817C8180E090E024ED30E340E049
:1014900050E00E94EE133DE095958795779567950E
:1014A0003A95D1F7F6016083718382839383C801F3
:1014B0000F900F900F900F90CF91DF911F910F9190
:1014C000FF90EF90DF90CF900895EF92FF920F93EF
:1014D0001F93DF93CF9300D000D00F92CDB7DEB72C
:1014E0007C018E010F5F1F4FC80160E070E046E194
:1014F00054E20E949503BC01C801A7010E94EF03BA
:10150000AC0182E6B8010E9486058C01009731F497
:1015100068EE73E080E090E00E94A40BC8010F9099
:101520000F900F900F900F90CF91DF911F910F911F
:10153000FF90EF900895CF92DF92EF92FF920F937A
:101540001F93DF93CF9300D000D00F92CDB7DEB7BB
:101550008C016B017E010894E11CF11CC70160E065
:1015600070E04FE256E30E949503BC01C701A80159
:101570000E94EF03AC0182E6B7010E9486058C0150
:101580000097A9F460E87AE186E090E00E94A40B5D
:1015900082E6B70142E050E00E94A3048C0100976C
:1015A00031F4C7010E94B802F60191838083C8011B
:1015B0000F900F900F900F900F90CF91DF911F9190
:1015C0000F91FF90EF90DF90CF900895EF92FF92F0
:1015D0000F931F93DF93CF9300D000D00F92CDB71E
:1015E000DEB77C018E010F5F1F4FC80160E070E025
:1015F00040E050EE0E949503BC01C801A7010E9483
:10160000EF03AC0182E6B8010E9486058C010097C9
:1016100031F468EE73E080E090E00E94A40BC80112
:101620000F900F900F900F900F90CF91DF911F911F
:101630000F91FF90EF900895EF92FF920F931F93F9
:10164000DF93CF9300D000D00F92CDB7DEB77C01EF
:101650008E010F5F1F4FC80160E070E047E254E267
:101660000E949503BC01C801A7010E94EF03AC01D1
:1016700082E6B8010E9486058C01009731F468EE7D
:1016800073E080E090E00E94A40BC8010F900F90DF
:101690000F900F900F90CF91DF911F910F91FF90BE
:1016A000EF900895EF92FF920F931F93DF93CF93E4
:1016B00000D000D00F92CDB7DEB77C018E010F5F56
:1016C0001F4FC80160E070E04DE154E20E949503B5
:1016D000BC01C801A7010E94EF03AC0182E6B8017A
:1016E0000E9486058C01009731F468EE73E080E07B
:1016F00090E00E94A40BC8010F900F900F900F90E4
:101700000F90CF91DF911F910F91FF90EF9008956F
:101710002FEE3FE240E050E00E94EE13DC01CB01EF
:101720005FE0B595A795979587955A95D1F70E9453
:10173000520B08958FE190E008951092B90089E668
:101740008093B80008950895AF92BF92CF92DF9230
:10175000EF92FF920F931F930E9480115B016C0127
:1017600022E539E44DE150E40E94F60E7B018C0144
:1017700020E030E040E85FE30E94FC10882314F48E
:1017800061E054C0C801B70120E030E04FE753E406
:101790000E949C1018160CF045C0C601B50120E04F
:1017A00030E04AE754E40E94F00F5B016C0126E64A
:1017B00036E646EE54E40E94F60E7B018C0120E0F2
:1017C00030E040E85FE30E94FC1088231CF461E0F5
:1017D00070E024C0C801B70120E03FEF4FE757E4B5
:1017E0000E949C101816B4F4C601B50120E030E048
:1017F00040E251E40E94F60E0E94200D88EB90E03A
:1018000005C0FC013197F1F7615070406115710519
:10181000C1F70EC0C801B7010E94200DCB0101978E
:10182000F1F706C0C801B7010E94200D6A95F1F7D3
:101830001F910F91FF90EF90DF90CF90BF90AF90EE
:101840000895BF92CF92DF92EF92FF920F931F9372
:10185000CF93DF93B82EFB01D901E7014115510564
:1018600031F40115110519F490E080E054C084EAC8
:101870008093BC008091BC0087FFFCCF9091B900A1
:10188000987F983009F09FC08B2D8E7F8093BB008E
:1018900084E88093BC008091BC0087FFFCCF9091CE
:1018A000B900987F9831B1F0903209F08CC088C0AF
:1018B00080818093BB002093BC008091BC0087FF97
:1018C000FCCF9091B900987F415050409832C9F4B4
:1018D000319601C024E84115510551F716C08C918D
:1018E0008093BB002093BC008091BC0087FFFCCF9D
:1018F0009091B900987F01501040983211F41196E0
:1019000005C0903309F05FC05BC024E801151105E4
:1019100031F791E081E0C114D10409F44EC088236D
:1019200011F428E001C020E184EA8093BC0080919A
:10193000BC0087FFFCCF9091B900987F921709F007
:1019400042C081E0B82AB092BB0084E88093BC001A
:101950008091BC0087FFFCCF9091B900987F9034B4
:1019600019F0983481F52CC00894C108D10824ECF2
:1019700011C02093BC008091BC0087FFFCCF9091E8
:10198000B900987F0894C108D1089035E1F480919E
:10199000BB008993C114D10461F784E88093BC0033
:1019A0008091BC0087FFFCCF9091B900987F98355B
:1019B00051F48091BB00888302C0992321F090E00C
:1019C00084E98093BC00892FDF91CF911F910F9103
:1019D000FF90EF90DF90CF90BF900895CF92DF926D
:1019E000EF92FF920F931F939B018A0160E070E0DA
:1019F00040E050E0EE24FF24CC24DD240E94210CA2
:101A00001F910F91FF90EF90DF90CF900895CF92AC
:101A1000DF92EF92FF920F931F937B016A0160E0C8
:101A200070E040E050E020E030E000E010E00E9494
:101A3000210C1F910F91FF90EF90DF90CF900895B0
:101A4000EF92FF920F931F937B018C0120E030E017
:101A500040E05FE40E94CC1088238CF0C801B701FD
:101A600020E030E040E05FE40E94980E0E942C11DC
:101A70009B01AC01205030404040504806C0C80196
:101A8000B7010E942C119B01AC01B901CA011F9141
:101A90000F91FF90EF900895A0E0B0E0E2E5FDE047
:101AA0000C940D14DC012B01FA019C91923008F486
:101AB00039C1EB018881823008F433C1943069F474
:101AC000843009F02FC111969C9111978981981744
:101AD00009F428C1ADE5B2E025C1843009F421C183
:101AE0008230A9F4923009F01DC19A01AD0188E05D
:101AF000EA010990AE01E90109929E018150C1F706
:101B0000E201898111969C918923818308C19230D9
:101B100009F407C112962D903C901397EB018A812E
:101B20009B811496AD90BD90CD90DC901797EC8082
:101B3000FD800E811F819101281B390BB90137FFF0
:101B400004C066277727621B730B603271050CF0A7
:101B500061C0121613066CF537014801062E04C049
:101B600096948794779467940A94D2F721E030E0B2
:101B700040E050E004C0220F331F441F551F6A95F8
:101B8000D2F721503040404050402E213F21402389
:101B90005123211531054105510521F021E030E0A7
:101BA00040E050E079018A01E628F7280829192940
:101BB0003CC0232BD1F1260E371E35014601062EDF
:101BC00004C096948794779467940A94D2F721E09E
:101BD00030E040E050E004C0220F331F441F551F87
:101BE0006A95D2F721503040404050402A213B2195
:101BF0004C215D21211531054105510521F021E0E0
:101C000030E040E050E059016A01A628B728C82812
:101C1000D9280BC0821593052CF01C01AA24BB24E3
:101C2000650103C0EE24FF24870111969C91D20127
:101C300011968C91981709F445C0992339F0A801A1
:101C400097012A193B094C095D0906C0A6019501B7
:101C50002E193F09400B510B57FD08C011823382EA
:101C6000228224833583468357831DC081E081838C
:101C70003382228288279927DC01821B930BA40BD5
:101C8000B50B84839583A683B7830DC0220F331FC2
:101C9000441F551F24833583468357838281938154
:101CA0000197938382832481358146815781DA01AC
:101CB000C9010197A109B1098F5F9F4FAF4FBF4382
:101CC00028F30BC0918333822282EA0CFB1C0C1D8B
:101CD0001D1DE482F5820683178383E080832481BF
:101CE00035814681578157FF1AC0C901AA2797FD40
:101CF000A095BA2F81709070A070B07056954795DE
:101D000037952795822B932BA42BB52B8483958312
:101D1000A683B78382819381019693838283DF01B7
:101D200001C0D201CD01CDB7DEB7E2E10C94291498
:101D3000A0E2B0E0EEE9FEE00C94191469837A8326
:101D40008B839C832D833E834F835887E9E0EE2E5F
:101D5000F12CEC0EFD1ECE010196B7010E941D1361
:101D60008E010F5E1F4FCE010596B8010E941D1314
:101D70008A8991E089278A8BC701B801AE01475E45
:101D80005F4F0E944C0D0E944812A096E6E00C9412
:101D90003514A0E2B0E0EFECFEE00C941914698376
:101DA0007A838B839C832D833E834F835887F9E00E
:101DB000EF2EF12CEC0EFD1ECE010196B7010E9414
:101DC0001D138E010F5E1F4FCE010596B8010E94B4
:101DD0001D13C701B801AE01475E5F4F0E944C0D55
:101DE0000E944812A096E6E00C943514A0E2B0E000
:101DF000ECEFFEE00C940D1469837A838B839C8353
:101E00002D833E834F835887CE010196BE01675FC5
:101E10007F4F0E941D13CE010596BE016F5E7F4F5E
:101E20000E941D139985923088F089898230C8F00C
:101E3000943019F4823051F404C0843029F4923083
:101E400081F48DE592E0C6C0923049F420E09A8595
:101E50008A89981321E02A87CE010996BBC0823077
:101E600049F420E09A858A89981321E02A8BCE01D3
:101E70004196B0C02D843E844F8458886D887E88FA
:101E80008F88988CEE24FF248701AA24BB24650147
:101E900040E050E060E070E0E0E0F0E0C10181701F
:101EA0009070892BE9F0E60CF71C081D191D9A01AA
:101EB000AB012A0D3B1D4C1D5D1D80E090E0A0E0B4
:101EC000B0E0E614F7040805190520F481E090E07D
:101ED000A0E0B0E0BA01A901480F591F6A1F7B1F9B
:101EE000AA0CBB1CCC1CDD1C97FE08C081E090E056
:101EF000A0E0B0E0A82AB92ACA2ADB2A3196E0324B
:101F0000F10549F0660C771C881C991C569447947F
:101F100037942794C3CFFA85EA892B893C898B852E
:101F20009C85280F391F2E5F3F4F17C0CA01817053
:101F30009070892B61F016950795F794E79480E0EF
:101F400090E0A0E0B0E8E82AF92A0A2B1B2B76954E
:101F50006795579547952F5F3F4F77FDE7CF0CC0AB
:101F6000440F551F661F771F17FD4160EE0CFF1CC5
:101F7000001F111F21503040403090E0590790E081
:101F8000690790E4790760F32B8F3C8FDB01CA016E
:101F90008F779070A070B07080349105A105B10565
:101FA00061F447FD0AC0E114F1040105110529F0AF
:101FB000405C5F4F6F4F7F4F40781A8EFE1711F0D5
:101FC00081E08A8F4D8F5E8F6F8F78A383E0898F3A
:101FD000CE0149960E944812A096E2E10C94291481
:101FE000A8E1B0E0E6EFFFE00C94151469837A8372
:101FF0008B839C832D833E834F835887B9E0EB2EE0
:10200000F12CEC0EFD1ECE010196B7010E941D13AE
:102010008E010F5E1F4FCE010596B8010E941D1361
:102020002985223008F47EC03989323010F4B80195
:102030007CC08A859A8989278A87243011F02230CA
:1020400031F4231709F06EC06DE572E06EC03430D4
:1020500039F41D861E861F86188A1C861B8604C0BE
:10206000323021F484E08987B7015FC02B853C853D
:102070008B899C89281B390B3C872B87ED84FE8438
:102080000F851889AD88BE88CF88D88CEA14FB04E8
:102090000C051D0540F4EE0CFF1C001F111F215004
:1020A00030403C872B8720E030E040E050E080E08B
:1020B00090E0A0E0B0E460E070E0EA14FB040C05FE
:1020C0001D0540F0282B392B4A2B5B2BEA18FB0807
:1020D0000C091D09B695A79597958795EE0CFF1CE1
:1020E000001F111F6F5F7F4F6F31710531F7DA01EC
:1020F000C9018F779070A070B07080349105A105F0
:10210000B10561F427FD0AC0E114F10401051105D0
:1021100029F0205C3F4F4F4F5F4F20782D873E873F
:102120004F87588BBE01675F7F4FCB010E944812DB
:102130006896EAE00C943114A8E1B0E0E2EAF0E13C
:102140000C94191469837A838B839C832D833E833B
:102150004F83588789E0E82EF12CEC0EFD1ECE014E
:102160000196B7010E941D138E010F5E1F4FCE0115
:102170000596B8010E941D138985823040F0898937
:10218000823028F0C701B8010E94951301C08FEF7B
:102190006896E6E00C943514A8E1B0E0E2EDF0E1D9
:1021A0000C94191469837A838B839C832D833E83DB
:1021B0004F83588789E0E82EF12CEC0EFD1ECE01EE
:1021C0000196B7010E941D138E010F5E1F4FCE01B5
:1021D0000596B8010E941D138985823040F08989D7
:1021E000823028F0C701B8010E94951301C08FEF1B
:1021F0006896E6E00C943514A8E1B0E0E2E0F1E185
:102200000C94191469837A838B839C832D833E837A
:102210004F83588789E0E82EF12CEC0EFD1ECE018D
:102220000196B7010E941D138E010F5E1F4FCE0154
:102230000596B8010E941D138985823040F0898976
:10224000823028F0C701B8010E94951301C081E0D7
:102250006896E6E00C943514ACE0B0E0E2E3F1E11E
:102260000C941D1469837A838B839C83CE01019621
:10227000BE016B5F7F4F0E941D138D81823061F123
:10228000823050F1843021F48E81882351F12EC0A8
:102290002F81388537FD20C06E812F3131051CF02C
:1022A0006623F9F023C08EE190E0821B930B298511
:1022B0003A854B855C8504C056954795379527959B
:1022C0008A95D2F76623B1F05095409530952195C7
:1022D0003F4F4F4F5F4F0EC020E030E040E050E0F6
:1022E00009C02FEF3FEF4FEF5FE704C020E030E081
:1022F00040E050E8B901CA012C96E2E00C94391490
:10230000A8E0B0E0E6E8F1E10C9415147B018C0143
:10231000611571058105910519F482E0898360C01A
:1023200083E089838EE1C82ED12CDC82CB82ED82C2
:10233000FE820F831887C801B7010E94F911FC01C2
:102340003197F7FF3BC0222733272E1B3F0B570146
:102350006801022E04C0D694C794B794A7940A9437
:10236000D2F740E050E060E070E081E090E0A0E073
:10237000B0E004C0880F991FAA1FBB1F2A95D2F78F
:102380000197A109B1098E219F21A023B1230097B4
:10239000A105B10521F041E050E060E070E04A297C
:1023A0005B296C297D294D835E836F8378878EE15D
:1023B00090E08E1B9F0B9C838B8312C0309781F023
:1023C0000E2E04C0EE0CFF1C001F111F0A94D2F742
:1023D000ED82FE820F831887CE1ADF0ADC82CB8261
:1023E0001A82CE0101960E9448122896EAE00C94C7
:1023F0003114EF92FF920F931F937B018C0180E0C9
:10240000E81680E0F80681E0080780E0180788F405
:102410008FEFE816F1040105110531F028F088E08E
:1024200090E0A0E0B0E017C080E090E0A0E0B0E075
:1024300012C080E0E81680E0F80680E0080781E03E
:10244000180728F088E190E0A0E0B0E004C080E147
:1024500090E0A0E0B0E020E230E040E050E0281B57
:10246000390B4A0B5B0B04C016950795F794E7945C
:102470008A95D2F7F701EB59FD4F8081281B31096E
:1024800041095109C9011F910F91FF90EF900895E3
:10249000DF92EF92FF920F931F93FC01E480F5808F
:1024A00006811781D1808081823048F480E090E0FD
:1024B000A0E1B0E0E82AF92A0A2B1B2BA5C0843042
:1024C00009F49FC0823021F4EE24FF24870105C067
:1024D000E114F1040105110519F4E0E0F0E096C003
:1024E000628173819FEF623879070CF05BC022E84C
:1024F0003FEF261B370B2A3131052CF020E030E06E
:1025000040E050E02AC0B801A701022E04C0769531
:102510006795579547950A94D2F781E090E0A0E03F
:10252000B0E004C0880F991FAA1FBB1F2A95D2F7DD
:102530000197A109B1098E219F21A023B123009702
:10254000A105B10521F081E090E0A0E0B0E09A01A2
:10255000AB01282B392B4A2B5B2BDA01C9018F7772
:102560009070A070B07080349105A105B10539F468
:1025700027FF09C0205C3F4F4F4F5F4F04C0215CD5
:102580003F4F4F4F5F4FE0E0F0E02030A0E03A07D0
:10259000A0E04A07A0E45A0710F0E1E0F0E079017A
:1025A0008A0127C06038710564F5FB01E158FF4FCF
:1025B000D801C7018F779070A070B07080349105FA
:1025C000A105B10539F4E7FE0DC080E490E0A0E07C
:1025D000B0E004C08FE390E0A0E0B0E0E80EF91EA8
:1025E0000A1F1B1F17FF05C016950795F794E79460
:1025F000319687E016950795F794E7948A95D1F779
:1026000005C0EE24FF248701EFEFF0E06E2F679501
:1026100066276795902F9F77D794DD24D7948E2FC8
:102620008695492F462B582F5D29B701CA011F9166
:102630000F91FF90EF90DF900895FC01DB01408146
:1026400051812281622F6F7770E0221F2227221F83
:102650009381892F880F822B282F30E0991F99278B
:10266000991F11969C93119721153105A9F54115D4
:1026700051056105710511F482E037C082E89FEFD2
:1026800013969C938E9312979A01AB0167E0220FE9
:10269000331F441F551F6A95D1F783E08C930DC0FB
:1026A000220F331F441F551F12968D919C91139733
:1026B000019713969C938E931297203080E03807F1
:1026C00080E0480780E4580758F314962D933D9313
:1026D0004D935C93179708952F3F310579F4411579
:1026E00051056105710519F484E08C93089564FF28
:1026F00003C081E08C9312C01C9210C02F57304051
:1027000013963C932E93129783E08C9387E0440FAB
:10271000551F661F771F8A95D1F7706414964D93E5
:102720005D936D937C93179708951F93DC01FB01D4
:102730009C91923008F447C08081823008F443C0F5
:10274000943051F411961C91843099F58181682F51
:1027500070E0611B71093FC0843021F0923031F488
:102760008230B9F18181882389F12DC011961C91A5
:1027700011978230F1F081811817D9F412962D91BA
:102780003C911397828193818217930794F02817C5
:102790003907BCF014968D919D910D90BC91A02DA0
:1027A0002481358146815781281739074A075B07FD
:1027B00018F4112341F00AC082179307A407B50744
:1027C00040F4112319F061E070E005C06FEF7FEF76
:1027D00002C060E070E0CB011F910895629FD001BC
:1027E000739FF001829FE00DF11D649FE00DF11DCC
:1027F000929FF00D839FF00D749FF00D659FF00D7B
:102800009927729FB00DE11DF91F639FB00DE11D67
:10281000F91FBD01CF01112408952F923F924F92CD
:102820005F926F927F928F929F92AF92BF92CF9260
:10283000DF92EF92FF920F931F93CF93DF93CDB769
:10284000DEB7CA1BDB0B0FB6F894DEBF0FBECDBFE1
:1028500009942A88398848885F846E847D848C84B2
:102860009B84AA84B984C884DF80EE80FD800C81BB
:102870001B81AA81B981CE0FD11D0FB6F894DEBF9E
:102880000FBECDBFED010895AEE0B0E0EAE4F4E1A3
:102890000C941B140D891E898F89988D97FF02C097
:1028A00080E090E801979E838D831A83098386E0F8
:1028B0008C839E01255E3F4FCE010196698D7A8DF6
:1028C000A9010E9475144D815E8157FD0AC02F81B8
:1028D0003885421753070CF49A01020F131FF801B1
:1028E00010822E96E4E00C943714ABE0B0E0EBE7F6
:1028F000F4E10C940D143C012B015A01FC011782E8
:102900001682838181FD03C06FEF7FEFC6C19AE01D
:10291000892E1E010894211C311CF3012381F20130
:1029200023FD859123FF81912F01882309F4B2C1F2
:10293000853239F423FD859123FF81912F01853262
:1029400029F490E0B3010E946816E7CF982FFF2486
:10295000EE249924FFE1FF15D0F09B3269F09C3200
:1029600028F4903259F0933291F40EC09D3249F020
:10297000903369F441E024C052E0F52A84E0F82A5B
:1029800028C098E0F92A25C0E0E1FE2A22C0F7FC21
:1029900029C0892F80538A3070F4F6FE05C0989CB8
:1029A000902C1124980E15C0E89CE02C1124E80E00
:1029B000F0E2FF2A0EC09E3229F4F6FC6BC140E41F
:1029C000F42A07C09C3619F450E8F52A02C098365C
:1029D00049F4F20123FD959123FF91912F01992351
:1029E00009F0B8CF892F8554833018F08052833096
:1029F00038F444E050E0A40EB51E5FE359830FC0E5
:102A0000933631F0933779F0933509F056C020C0F2
:102A1000F5018081898342E050E0A40EB51E61017A
:102A200001E010E012C0F501C080D180F6FC03C0C7
:102A30006FEF7FEF02C0692D70E042E050E0A40E1E
:102A4000B51EC6010E945D168C015FE7F52214C019
:102A5000F501C080D180F6FC03C06FEF7FEF02C0AC
:102A6000692D70E042E050E0A40EB51EC6010E9440
:102A700052168C0150E8F52AF3FE07C01AC080E216
:102A800090E0B3010E946816EA948E2D90E008173A
:102A90001907A8F30EC0F601F7FC8591F7FE8191A6
:102AA0006F0190E0B3010E946816E110EA940150B2
:102AB00010400115110579F7EAC0943611F09936E6
:102AC00069F5F7FE08C0F50120813181428153810B
:102AD00084E090E00AC0F501808191819C01442747
:102AE00037FD4095542F82E090E0A80EB91E9FE676
:102AF000F92257FF09C050954095309521953F4FD9
:102B00004F4F5F4FE0E8FE2ACA01B901A1012AE058
:102B100030E00E949416D82ED21840C0953729F480
:102B20001F2D1F7E2AE030E01DC01F2D197F9F360C
:102B300061F0903720F4983509F0ACC00FC09037A1
:102B400039F0983709F0A6C004C028E030E00AC088
:102B5000106114FD146020E130E004C014FD166023
:102B600020E132E017FF08C0F501608171818281A8
:102B7000938144E050E008C0F50180819181BC015F
:102B800080E090E042E050E0A40EB51EA1010E945A
:102B90009416D82ED2188FE7F82EF122F6FE0BC02D
:102BA0005EEFF522D91438F4F4FE07C0F2FC05C03C
:102BB0008FEEF82202C01D2D01C0192DF4FE0DC0AC
:102BC000FE01ED0DF11D8081803319F499EEF9229B
:102BD00008C01F5FF2FE05C003C08F2D867809F084
:102BE0001F5F0F2DF3FC14C0F0FE0FC01E1510F078
:102BF0009D2C0BC09D2C9E0C911A1E2D06C080E2B0
:102C000090E0B3010E9468161F5F1E15C0F304C058
:102C10001E1510F4E11A01C0EE2404FF0FC080E37A
:102C200090E0B3010E94681602FF1DC001FD03C0C1
:102C300088E790E00EC088E590E00BC0802F867892
:102C400091F001FF02C08BE201C080E2F7FC8DE24F
:102C500090E0B3010E94681606C080E390E0B301E3
:102C60000E9468169A94D914C0F3DA94F101ED0D1C
:102C7000F11D808190E0B3010E946816DD20A9F764
:102C800006C080E290E0B3010E946816EA94EE204C
:102C9000C1F743CEF30166817781CB012B96E2E148
:102CA0000C942914FC010590615070400110D8F774
:102CB000809590958E0F9F1F0895FC016150704084
:102CC00001900110D8F7809590958E0F9F1F089561
:102CD0000F931F93CF93DF938C01EB018B8181FFC7
:102CE0001BC082FF0DC02E813F818C819D812817E2
:102CF000390764F4E881F9810193F983E88306C018
:102D0000E885F985802F0995892B31F48E819F8183
:102D100001969F838E8302C00FEF1FEFC801DF91E2
:102D2000CF911F910F910895FA01AA27283051F1F0
:102D3000203181F1E8946F936E7F6E5F7F4F8F4FEC
:102D40009F4FAF4FB1E03ED0B4E03CD0670F781F4B
:102D5000891F9A1FA11D680F791F8A1F911DA11D30
:102D60006A0F711D811D911DA11D20D009F4689469
:102D70003F912AE0269F11243019305D3193DEF611
:102D8000CF010895462F4770405D4193B3E00FD0C7
:102D9000C9F7F6CF462F4F70405D4A3318F0495DB2
:102DA00031FD4052419302D0A9F7EACFB4E0A69595
:102DB0009795879577956795BA95C9F700976105B7
:102DC000710508959B01AC010A2E0694579547950D
:102DD00037952795BA95C9F7620F731F841F951F02
:082DE000A01D0895F894FFCF37
:102DE8004572726F7220657865637574696E6720C5
:102DF80073636434785F6765745F73657269616C67
:102E08005F6E756D62657228293A2025690A00731C
:102E1800657269616C3A2030782530347825303411
:102E280078253034780A004572726F7220657865AB
:102E3800637574696E672073636434785F73746153
:102E480072745F706572696F6469635F6D656173E1
:102E58007572656D656E7428293A2025690A0057D0
:102E6800616974696E6720666F722066697273742F
:102E7800206D6561737572656D656E742E2E2E20DA
:102E8800283520736563290A004572726F722065C0
:102E98007865637574696E672073636434785F67F7
:102EA80065745F646174615F72656164795F666CA3
:102EB800616728293A2025690A004572726F7220D5
:102EC800657865637574696E672073636434785FC9
:102ED800726561645F6D6561737572656D656E7449
:102EE80028293A2025690A00496E76616C696420B0
:102EF80073616D706C652064657465637465642CBA
:102F080020736B697070696E672E0A00434F323AFE
:102F18002025750A0054656D706572617475726557
:102F28003A202564206DC2B0430A0048756D696473
:102F38006974793A202564206D52480A000000001F
:102F4800000000000000010202030303030404045C
:102F5800040404040405050505050505050505051E
:102F680005050505050606060606060606060606FE
:102F780006060606060606060606060606060606E9
:102F880006060606060707070707070707070707CE
:102F980007070707070707070707070707070707B9
:102FA80007070707070707070707070707070707A9
:102FB8000707070707070707070707070707070799
:102FC800070707070708080808080808080808087E
:102FD8000808080808080808080808080808080869
:102FE8000808080808080808080808080808080859
:102FF8000808080808080808080808080808080849
:103008000808080808080808080808080808080838
:103018000808080808080808080808080808080828
:103028000808080808080808080808080808080818
:103038000808080808080808080808080808080808
:063048000808080808005A
:00000001FF
