:100000000C9434000C943E000C943E000C943E0082
:100010000C943E000C943E000C943E000C943E0068
:100020000C943E000C943E000C943E000C943E0058
:100030000C943E000C943E000C943E000C943E0048
:100040000C943E000C943E000C943E000C943E0038
:100050000C943E000C943E000C943E000C943E0028
:100060000C943E000C943E0011241FBECFEFD8E04C
:10007000DEBFCDBF0E9413010C9444010C9400001C
:10008000BF92CF92DF92EF92FF920F931F93CF9385
:10009000DF93B82EFB01D901E7014115510531F479
:1000A0000115110519F490E080E054C084EA8093B2
:1000B000BC008091BC0087FFFCCF9091B900987F75
:1000C000983009F09FC08B2D8E7F8093BB0084E811
:1000D0008093BC008091BC0087FFFCCF9091B90059
:1000E000987F9831B1F0903209F08CC088C080813F
:1000F0008093BB002093BC008091BC0087FFFCCFA5
:100100009091B900987F415050409832C9F431968F
:1001100001C024E84115510551F716C08C91809318
:10012000BB002093BC008091BC0087FFFCCF909166
:10013000B900987F01501040983211F4119605C013
:10014000903309F05FC05BC024E80115110531F759
:1001500091E081E0C114D10409F44EC0882311F468
:1001600028E001C020E184EA8093BC008091BC00BB
:1001700087FFFCCF9091B900987F921709F042C099
:1001800081E0B82AB092BB0084E88093BC008091E3
:10019000BC0087FFFCCF9091B900987F903419F094
:1001A000983481F52CC00894C108D10824EC11C002
:1001B0002093BC008091BC0087FFFCCF9091B900D8
:1001C000987F0894C108D1089035E1F48091BB0074
:1001D0008993C114D10461F784E88093BC008091B5
:1001E000BC0087FFFCCF9091B900987F983551F4FF
:1001F0008091BB00888302C0992321F090E084E9BC
:100200008093BC00892FDF91CF911F910F91FF90B8
:10021000EF90DF90CF90BF9008951092B9008DE1DC
:100220008093B8000895CF92DF92EF92FF920F93E0
:100230001F93DF93CF93CDB7DEB72F970FB6F89408
:10024000DEBF0FBECDBF0E940D0185EC60E070E007
:1002500040E050E09E012F5F3F4F04E010E0EE24AD
:10026000FF24CC24DD240E9440002F960FB6F89482
:10027000DEBF0FBECDBFCF91DF911F910F91FF90D9
:0C028000EF90DF90CF900895F894FFCF2E
:00000001FF
