:100000000C9434000C9451000C9451000C94510049
:100010000C9451000C9451000C9451000C9451001C
:100020000C9451000C9451000C9451000C9451000C
:100030000C9451000C9451000C9451000C945100FC
:100040000C9451000C9451000C9451000C945100EC
:100050000C9451000C9451000C9451000C945100DC
:100060000C9451000C94510011241FBECFEFD8E026
:10007000DEBFCDBF11E0A0E0B1E0E0E7FCE002C0F0
:1000800005900D92A23DB107D9F712E0A2EDB1E0C3
:1000900001C01D92A234B107E1F70E94C9010C947E
:1000A00036060C940000BF92CF92DF92EF92FF923F
:1000B0000F931F93CF93DF93B82EFB01D901E70174
:1000C0004115510531F40115110519F490E080E056
:1000D00054C084EA8093BC008091BC0087FFFCCFB1
:1000E0009091B900987F983009F09FC08B2D8E7F3A
:1000F0008093BB0084E88093BC008091BC0087FFA4
:10010000FCCF9091B900987F9831B1F0903209F00E
:100110008CC088C080818093BB002093BC008091FC
:10012000BC0087FFFCCF9091B900987F41505040B0
:100130009832C9F4319601C024E84115510551F7B0
:1001400016C08C918093BB002093BC008091BC00B2
:1001500087FFFCCF9091B900987F015010409832F2
:1001600011F4119605C0903309F05FC05BC024E81C
:100170000115110531F791E081E0C114D10409F4B2
:100180004EC0882311F428E001C020E184EA809366
:10019000BC008091BC0087FFFCCF9091B900987F94
:1001A000921709F042C081E0B82AB092BB0084E8FF
:1001B0008093BC008091BC0087FFFCCF9091B90078
:1001C000987F903419F0983481F52CC00894C108B8
:1001D000D10824EC11C02093BC008091BC0087FFA3
:1001E000FCCF9091B900987F0894C108D108903550
:1001F000E1F48091BB008993C114D10461F784E8D4
:100200008093BC008091BC0087FFFCCF9091B90027
:10021000987F983551F48091BB00888302C0992360
:1002200021F090E084E98093BC00892FDF91CF9189
:100230001F910F91FF90EF90DF90CF90BF900895A6
:10024000CF92DF92EF92FF920F931F93DF93CF93A2
:1002500000D0CDB7DEB77C016B0159834A8380EAB9
:10026000BE016F5F7F4F42E050E020E030E000E0F1
:1002700010E00E9453000F900F90CF91DF911F91DB
:100280000F91FF90EF90DF90CF9008952F923F92C3
:100290004F925F926F927F928F929F92AF92BF9296
:1002A000CF92DF92EF92FF920F931F93DF93CF9342
:1002B00000D0CDB7DEB72C013B014A01212C34E23E
:1002C000332E27C099828A82C4018F73907020E4F4
:1002D000A22EB12CA81AB90A6A147B0408F453019F
:1002E00080EABE016F5F7F4F42E050E092018501DE
:1002F000EE24FF24CC24DD240E945300882369F4DB
:10030000C1010197F1F74A0C5B1C8A0C9B1C6A180F
:100310007B0861147104B1F680E00F900F90CF91CB
:10032000DF911F910F91FF90EF90DF90CF90BF90E2
:10033000AF909F908F907F906F905F904F903F9085
:100340002F9008951092B9008093B800089590E01E
:100350009093C5008093C400E1ECF0E08081886058
:10036000808386E08093C2000895982F8091C0001A
:1003700085FFFCCF9093C6000895FC0106C08091D4
:10038000C00085FFFCCF9093C60091919923B9F7E7
:1003900008957F928F929F92AF92BF92CF92DF92F9
:1003A000EF92FF920F931F93CF93DF93419A109296
:1003B000B9008AE28093B8008FE390E09093C50083
:1003C0008093C4008091C10088608093C10086E062
:1003D0008093C20080E091E00E94BD0102ED11E037
:1003E00080E2D8011D928A95E9F7C80160E270E0C9
:1003F00044EF51E00E942001F82EEDB7FEB73A9786
:100400000FB6F894FEBF0FBEEDBF3196C2EFD1E03C
:10041000ADB7BEB71296DC93CE931197B0E5CB2E55
:10042000D12CD382C2828EE091E09583848317839E
:10043000068384EF91E0918780870E945103EDB796
:10044000FEB73A960FB6F894FEBF0FBEEDBFCE01D1
:100450000E94BD012DB73EB7285030400FB6F8942A
:100460003EBF0FBE2DBFEDB7FEB73196ADB7BEB7DD
:100470001296DC93CE931197D382C28289E291E0E7
:1004800095838483F68217820E945103EDB7FEB7ED
:1004900038960FB6F894FEBF0FBEEDBFCE010E9496
:1004A000BD013199DEC0E091D2018E2F815383309E
:1004B00068F48F5F833009F480E0E82FF0E0EE0FFE
:1004C000FF1FE453FE4FA080018104C0A090CC0127
:1004D0000091CD012DB73EB72A5030400FB6F894A9
:1004E0003EBF0FBE2DBFEDB7FEB7319672EFE72EC0
:1004F00071E0F72EADB7BEB71296FC92EE9211974F
:1005000060E5C62ED12CD382C2828CE391E0958324
:100510008483A682078354EF852E51E0952E918621
:1005200080860E945103EDB7FEB73A960FB6F89455
:10053000FEBF0FBEEDBFC7010E94BD01EA2DF02F27
:10054000DF010D900020E9F7AA198A2D902F6A2F5C
:1005500070E044EF51E00E9446012DB73EB72850AD
:1005600030400FB6F8943EBF0FBE2DBFEDB7FEB7BB
:100570003196ADB7BEB71296FC92EE921197D38228
:10058000C28249E2A42E41E0B42EB582A4828683C1
:1005900017820E945103EDB7FEB738960FB6F89454
:1005A000FEBF0FBEEDBFC7010E94BD0102ED11E00D
:1005B00080E2D8011D928A95E9F7C80160E270E0F7
:1005C00044EF51E00E942001782EEDB7FEB73A9734
:1005D0000FB6F894FEBF0FBEEDBF3196ADB7BEB7F4
:1005E0001296FC92EE921197D382C2828EE091E035
:1005F0009583848317830683918680860E945103A6
:10060000EDB7FEB73A960FB6F894FEBF0FBEEDBF3A
:10061000C7010E94BD012DB73EB7285030400FB62C
:10062000F8943EBF0FBE2DBFEDB7FEB73196ADB704
:10063000BEB71296FC92EE921197D382C282B58217
:10064000A482768217820E945103EDB7FEB73896D6
:100650000FB6F894FEBF0FBEEDBFC7010E94BD01EB
:100660001FC000D000D000D0EDB7FEB73196ADB7B7
:10067000BEB71296DC93CE931197D382C28288E5DF
:1006800091E0958384830E945103EDB7FEB73696BF
:100690000FB6F894FEBF0FBEEDBFCE010E94BD01A4
:1006A000FFCFAEE0B0E0E7E5F3E00C940D060D8976
:1006B0001E898F89988D97FF02C080E090E801978E
:1006C0009E838D831A83098386E08C839E01255E39
:1006D0003F4FCE010196698D7A8DA9010E94820358
:1006E0004D815E8157FD0AC02F813885421753071F
:1006F0000CF49A01020F131FF80110822E96E4E009
:100700000C942906ABE0B0E0E8E8F3E00C94FF05B8
:100710003C012B015A01FC0117821682838181FD65
:1007200003C06FEF7FEFC6C19AE0892E1E010894C7
:10073000211C311CF3012381F20123FD859123FF4C
:1007400081912F01882309F4B2C1853239F423FD48
:10075000859123FF81912F01853229F490E0B30127
:100760000E947505E7CF982FFF24EE249924FFE11E
:10077000FF15D0F09B3269F09C3228F4903259F08A
:10078000933291F40EC09D3249F0903369F441E008
:1007900024C052E0F52A84E0F82A28C098E0F92A1B
:1007A00025C0E0E1FE2A22C0F7FC29C0892F805332
:1007B0008A3070F4F6FE05C0989C902C1124980E97
:1007C00015C0E89CE02C1124E80EF0E2FF2A0EC0D0
:1007D0009E3229F4F6FC6BC140E4F42A07C09C3633
:1007E00019F450E8F52A02C0983649F4F20123FDC5
:1007F000959123FF91912F01992309F0B8CF892F6B
:100800008554833018F08052833038F444E050E04F
:10081000A40EB51E5FE359830FC0933631F09337B2
:1008200079F0933509F056C020C0F50180818983A5
:1008300042E050E0A40EB51E610101E010E012C0DC
:10084000F501C080D180F6FC03C06FEF7FEF02C0DE
:10085000692D70E042E050E0A40EB51EC6010E9472
:100860006A058C015FE7F52214C0F501C080D180D4
:10087000F6FC03C06FEF7FEF02C0692D70E042E02D
:1008800050E0A40EB51EC6010E945F058C0150E821
:10089000F52AF3FE07C01AC080E290E0B3010E947F
:1008A0007505EA948E2D90E008171907A8F30EC07D
:1008B000F601F7FC8591F7FE81916F0190E0B3019D
:1008C0000E947505E110EA940150104001151105D0
:1008D00079F7EAC0943611F0993669F5F7FE08C049
:1008E000F501208131814281538184E090E00AC08A
:1008F000F501808191819C01442737FD4095542F5B
:1009000082E090E0A80EB91E9FE6F92257FF09C0C9
:1009100050954095309521953F4F4F4F5F4FE0E800
:10092000FE2ACA01B901A1012AE030E00E94A10516
:10093000D82ED21840C0953729F41F2D1F7E2AE0EB
:1009400030E01DC01F2D197F9F3661F0903720F4D5
:10095000983509F0ACC00FC0903739F0983709F0DE
:10096000A6C004C028E030E00AC0106114FD146085
:1009700020E130E004C014FD166020E132E017FFF2
:1009800008C0F501608171818281938144E050E06B
:1009900008C0F50180819181BC0180E090E042E0D7
:1009A00050E0A40EB51EA1010E94A105D82ED218B8
:1009B0008FE7F82EF122F6FE0BC05EEFF522D91478
:1009C00038F4F4FE07C0F2FC05C08FEEF82202C036
:1009D0001D2D01C0192DF4FE0DC0FE01ED0DF11D00
:1009E0008081803319F499EEF92208C01F5FF2FE6E
:1009F00005C003C08F2D867809F01F5F0F2DF3FC13
:100A000014C0F0FE0FC01E1510F09D2C0BC09D2CC5
:100A10009E0C911A1E2D06C080E290E0B3010E9448
:100A200075051F5F1E15C0F304C01E1510F4E11AF2
:100A300001C0EE2404FF0FC080E390E0B3010E94E8
:100A4000750502FF1DC001FD03C088E790E00EC0E0
:100A500088E590E00BC0802F867891F001FF02C0FE
:100A60008BE201C080E2F7FC8DE290E0B3010E94CE
:100A7000750506C080E390E0B3010E9475059A9465
:100A8000D914C0F3DA94F101ED0DF11D808190E0ED
:100A9000B3010E947505DD20A9F706C080E290E051
:100AA000B3010E947505EA94EE20C1F743CEF3012D
:100AB00066817781CB012B96E2E10C941B06FC0149
:100AC0000590615070400110D8F7809590958E0F79
:100AD0009F1F0895FC016150704001900110D8F7EC
:100AE000809590958E0F9F1F08950F931F93CF931E
:100AF000DF938C01EB018B8181FF1BC082FF0DC056
:100B00002E813F818C819D812817390764F4E8810B
:100B1000F9810193F983E88306C0E885F985802F80
:100B20000995892B31F48E819F8101969F838E8355
:100B300002C00FEF1FEFC801DF91CF911F910F91FE
:100B40000895FA01AA27283051F1203181F1E89463
:100B50006F936E7F6E5F7F4F8F4F9F4FAF4FB1E0B0
:100B60003ED0B4E03CD0670F781F891F9A1FA11DAB
:100B7000680F791F8A1F911DA11D6A0F711D811DAC
:100B8000911DA11D20D009F468943F912AE0269F71
:100B900011243019305D3193DEF6CF010895462FD0
:100BA0004770405D4193B3E00FD0C9F7F6CF462FB1
:100BB0004F70405D4A3318F0495D31FD405241931A
:100BC00002D0A9F7EACFB4E0A695979587957795D7
:100BD0006795BA95C9F700976105710508959B015E
:100BE000AC010A2E06945795479537952795BA95E7
:100BF000C9F7620F731F841F951FA01D08952F92C0
:100C00003F924F925F926F927F928F929F92AF929C
:100C1000BF92CF92DF92EF92FF920F931F93CF93E9
:100C2000DF93CDB7DEB7CA1BDB0B0FB6F894DEBF80
:100C30000FBECDBF09942A88398848885F846E84A6
:100C40007D848C849B84AA84B984C884DF80EE80F0
:100C5000FD800C811B81AA81B981CE0FD11D0FB6F9
:100C6000F894DEBF0FBECDBFED010895F894FFCF1D
:100C70000D0A61743332382D372E630D0A00526528
:100C8000616420222573222066726F6D20454550D5
:100C9000524F4D2025640D0A005374617475732002
:100CA0003D20307825322E32780D0A0053746F7251
:100CB000696E6720222573222061742045455052B9
:100CC0004F4D2025640D0A00427970617373696E7F
:100CD000672073746F72696E6720646174610D0AB6
:100CE00000313A2045453435394C7820617433322F
:100CF000382D372E63202D20352F31322F31320001
:100D0000323A204142434445464748494A4B4C4DBC
:100D10004E4F505152535455565758595A00333A22
:100D2000204156522074657374206F662032344C13
:100D30004332353620454550524F4D0071019001E8
:020D4000AE0102
:00000001FF
